{
  "contractName": "GoofyGolferrs",
  "abi": [
    {
      "inputs": [],
      "stateMutability": "nonpayable",
      "type": "constructor"
    },
    {
      "anonymous": false,
      "inputs": [
        {
          "indexed": true,
          "internalType": "address",
          "name": "owner",
          "type": "address"
        },
        {
          "indexed": true,
          "internalType": "address",
          "name": "approved",
          "type": "address"
        },
        {
          "indexed": true,
          "internalType": "uint256",
          "name": "tokenId",
          "type": "uint256"
        }
      ],
      "name": "Approval",
      "type": "event"
    },
    {
      "anonymous": false,
      "inputs": [
        {
          "indexed": true,
          "internalType": "address",
          "name": "owner",
          "type": "address"
        },
        {
          "indexed": true,
          "internalType": "address",
          "name": "operator",
          "type": "address"
        },
        {
          "indexed": false,
          "internalType": "bool",
          "name": "approved",
          "type": "bool"
        }
      ],
      "name": "ApprovalForAll",
      "type": "event"
    },
    {
      "anonymous": false,
      "inputs": [
        {
          "indexed": true,
          "internalType": "address",
          "name": "previousOwner",
          "type": "address"
        },
        {
          "indexed": true,
          "internalType": "address",
          "name": "newOwner",
          "type": "address"
        }
      ],
      "name": "OwnershipTransferred",
      "type": "event"
    },
    {
      "anonymous": false,
      "inputs": [
        {
          "indexed": false,
          "internalType": "uint256",
          "name": "tokenId",
          "type": "uint256"
        },
        {
          "components": [
            {
              "internalType": "address payable",
              "name": "account",
              "type": "address"
            },
            {
              "internalType": "uint96",
              "name": "value",
              "type": "uint96"
            }
          ],
          "indexed": false,
          "internalType": "struct LibPart.Part[]",
          "name": "royalties",
          "type": "tuple[]"
        }
      ],
      "name": "RoyaltiesSet",
      "type": "event"
    },
    {
      "anonymous": false,
      "inputs": [
        {
          "indexed": true,
          "internalType": "address",
          "name": "from",
          "type": "address"
        },
        {
          "indexed": true,
          "internalType": "address",
          "name": "to",
          "type": "address"
        },
        {
          "indexed": true,
          "internalType": "uint256",
          "name": "tokenId",
          "type": "uint256"
        }
      ],
      "name": "Transfer",
      "type": "event"
    },
    {
      "inputs": [
        {
          "internalType": "address",
          "name": "to",
          "type": "address"
        },
        {
          "internalType": "uint256",
          "name": "tokenId",
          "type": "uint256"
        }
      ],
      "name": "approve",
      "outputs": [],
      "stateMutability": "nonpayable",
      "type": "function"
    },
    {
      "inputs": [
        {
          "internalType": "address",
          "name": "owner",
          "type": "address"
        }
      ],
      "name": "balanceOf",
      "outputs": [
        {
          "internalType": "uint256",
          "name": "",
          "type": "uint256"
        }
      ],
      "stateMutability": "view",
      "type": "function",
      "constant": true
    },
    {
      "inputs": [],
      "name": "baseExtension",
      "outputs": [
        {
          "internalType": "string",
          "name": "",
          "type": "string"
        }
      ],
      "stateMutability": "view",
      "type": "function",
      "constant": true
    },
    {
      "inputs": [],
      "name": "baseURI",
      "outputs": [
        {
          "internalType": "string",
          "name": "",
          "type": "string"
        }
      ],
      "stateMutability": "view",
      "type": "function",
      "constant": true
    },
    {
      "inputs": [],
      "name": "cost",
      "outputs": [
        {
          "internalType": "uint256",
          "name": "",
          "type": "uint256"
        }
      ],
      "stateMutability": "view",
      "type": "function",
      "constant": true
    },
    {
      "inputs": [
        {
          "internalType": "uint256",
          "name": "tokenId",
          "type": "uint256"
        }
      ],
      "name": "getApproved",
      "outputs": [
        {
          "internalType": "address",
          "name": "",
          "type": "address"
        }
      ],
      "stateMutability": "view",
      "type": "function",
      "constant": true
    },
    {
      "inputs": [
        {
          "internalType": "uint256",
          "name": "id",
          "type": "uint256"
        }
      ],
      "name": "getRaribleV2Royalties",
      "outputs": [
        {
          "components": [
            {
              "internalType": "address payable",
              "name": "account",
              "type": "address"
            },
            {
              "internalType": "uint96",
              "name": "value",
              "type": "uint96"
            }
          ],
          "internalType": "struct LibPart.Part[]",
          "name": "",
          "type": "tuple[]"
        }
      ],
      "stateMutability": "view",
      "type": "function",
      "constant": true
    },
    {
      "inputs": [
        {
          "internalType": "address",
          "name": "owner",
          "type": "address"
        },
        {
          "internalType": "address",
          "name": "operator",
          "type": "address"
        }
      ],
      "name": "isApprovedForAll",
      "outputs": [
        {
          "internalType": "bool",
          "name": "",
          "type": "bool"
        }
      ],
      "stateMutability": "view",
      "type": "function",
      "constant": true
    },
    {
      "inputs": [],
      "name": "maxMintAmount",
      "outputs": [
        {
          "internalType": "uint256",
          "name": "",
          "type": "uint256"
        }
      ],
      "stateMutability": "view",
      "type": "function",
      "constant": true
    },
    {
      "inputs": [],
      "name": "maxSupply",
      "outputs": [
        {
          "internalType": "uint256",
          "name": "",
          "type": "uint256"
        }
      ],
      "stateMutability": "view",
      "type": "function",
      "constant": true
    },
    {
      "inputs": [],
      "name": "name",
      "outputs": [
        {
          "internalType": "string",
          "name": "",
          "type": "string"
        }
      ],
      "stateMutability": "view",
      "type": "function",
      "constant": true
    },
    {
      "inputs": [],
      "name": "owner",
      "outputs": [
        {
          "internalType": "address",
          "name": "",
          "type": "address"
        }
      ],
      "stateMutability": "view",
      "type": "function",
      "constant": true
    },
    {
      "inputs": [
        {
          "internalType": "uint256",
          "name": "tokenId",
          "type": "uint256"
        }
      ],
      "name": "ownerOf",
      "outputs": [
        {
          "internalType": "address",
          "name": "",
          "type": "address"
        }
      ],
      "stateMutability": "view",
      "type": "function",
      "constant": true
    },
    {
      "inputs": [],
      "name": "paused",
      "outputs": [
        {
          "internalType": "bool",
          "name": "",
          "type": "bool"
        }
      ],
      "stateMutability": "view",
      "type": "function",
      "constant": true
    },
    {
      "inputs": [],
      "name": "presaleCost",
      "outputs": [
        {
          "internalType": "uint256",
          "name": "",
          "type": "uint256"
        }
      ],
      "stateMutability": "view",
      "type": "function",
      "constant": true
    },
    {
      "inputs": [
        {
          "internalType": "address",
          "name": "",
          "type": "address"
        }
      ],
      "name": "presaleWallets",
      "outputs": [
        {
          "internalType": "bool",
          "name": "",
          "type": "bool"
        }
      ],
      "stateMutability": "view",
      "type": "function",
      "constant": true
    },
    {
      "inputs": [],
      "name": "renounceOwnership",
      "outputs": [],
      "stateMutability": "nonpayable",
      "type": "function"
    },
    {
      "inputs": [
        {
          "internalType": "uint256",
          "name": "id",
          "type": "uint256"
        },
        {
          "internalType": "uint256",
          "name": "_salePrice",
          "type": "uint256"
        }
      ],
      "name": "royaltyInfo",
      "outputs": [
        {
          "internalType": "address",
          "name": "receiver",
          "type": "address"
        },
        {
          "internalType": "uint256",
          "name": "royaltyAmount",
          "type": "uint256"
        }
      ],
      "stateMutability": "view",
      "type": "function",
      "constant": true
    },
    {
      "inputs": [
        {
          "internalType": "address",
          "name": "from",
          "type": "address"
        },
        {
          "internalType": "address",
          "name": "to",
          "type": "address"
        },
        {
          "internalType": "uint256",
          "name": "tokenId",
          "type": "uint256"
        }
      ],
      "name": "safeTransferFrom",
      "outputs": [],
      "stateMutability": "nonpayable",
      "type": "function"
    },
    {
      "inputs": [
        {
          "internalType": "address",
          "name": "from",
          "type": "address"
        },
        {
          "internalType": "address",
          "name": "to",
          "type": "address"
        },
        {
          "internalType": "uint256",
          "name": "tokenId",
          "type": "uint256"
        },
        {
          "internalType": "bytes",
          "name": "_data",
          "type": "bytes"
        }
      ],
      "name": "safeTransferFrom",
      "outputs": [],
      "stateMutability": "nonpayable",
      "type": "function"
    },
    {
      "inputs": [
        {
          "internalType": "address",
          "name": "operator",
          "type": "address"
        },
        {
          "internalType": "bool",
          "name": "approved",
          "type": "bool"
        }
      ],
      "name": "setApprovalForAll",
      "outputs": [],
      "stateMutability": "nonpayable",
      "type": "function"
    },
    {
      "inputs": [],
      "name": "symbol",
      "outputs": [
        {
          "internalType": "string",
          "name": "",
          "type": "string"
        }
      ],
      "stateMutability": "view",
      "type": "function",
      "constant": true
    },
    {
      "inputs": [
        {
          "internalType": "uint256",
          "name": "index",
          "type": "uint256"
        }
      ],
      "name": "tokenByIndex",
      "outputs": [
        {
          "internalType": "uint256",
          "name": "",
          "type": "uint256"
        }
      ],
      "stateMutability": "view",
      "type": "function",
      "constant": true
    },
    {
      "inputs": [
        {
          "internalType": "address",
          "name": "owner",
          "type": "address"
        },
        {
          "internalType": "uint256",
          "name": "index",
          "type": "uint256"
        }
      ],
      "name": "tokenOfOwnerByIndex",
      "outputs": [
        {
          "internalType": "uint256",
          "name": "",
          "type": "uint256"
        }
      ],
      "stateMutability": "view",
      "type": "function",
      "constant": true
    },
    {
      "inputs": [],
      "name": "totalSupply",
      "outputs": [
        {
          "internalType": "uint256",
          "name": "",
          "type": "uint256"
        }
      ],
      "stateMutability": "view",
      "type": "function",
      "constant": true
    },
    {
      "inputs": [
        {
          "internalType": "address",
          "name": "from",
          "type": "address"
        },
        {
          "internalType": "address",
          "name": "to",
          "type": "address"
        },
        {
          "internalType": "uint256",
          "name": "tokenId",
          "type": "uint256"
        }
      ],
      "name": "transferFrom",
      "outputs": [],
      "stateMutability": "nonpayable",
      "type": "function"
    },
    {
      "inputs": [
        {
          "internalType": "address",
          "name": "newOwner",
          "type": "address"
        }
      ],
      "name": "transferOwnership",
      "outputs": [],
      "stateMutability": "nonpayable",
      "type": "function"
    },
    {
      "inputs": [],
      "name": "txFeeAmount",
      "outputs": [
        {
          "internalType": "uint256",
          "name": "",
          "type": "uint256"
        }
      ],
      "stateMutability": "view",
      "type": "function",
      "constant": true
    },
    {
      "inputs": [
        {
          "internalType": "address",
          "name": "",
          "type": "address"
        }
      ],
      "name": "whitelisted",
      "outputs": [
        {
          "internalType": "bool",
          "name": "",
          "type": "bool"
        }
      ],
      "stateMutability": "view",
      "type": "function",
      "constant": true
    },
    {
      "inputs": [
        {
          "internalType": "address",
          "name": "_to",
          "type": "address"
        },
        {
          "internalType": "uint256",
          "name": "_mintAmount",
          "type": "uint256"
        }
      ],
      "name": "mint",
      "outputs": [],
      "stateMutability": "payable",
      "type": "function",
      "payable": true
    },
    {
      "inputs": [
        {
          "internalType": "address",
          "name": "_owner",
          "type": "address"
        }
      ],
      "name": "walletOfOwner",
      "outputs": [
        {
          "internalType": "uint256[]",
          "name": "",
          "type": "uint256[]"
        }
      ],
      "stateMutability": "view",
      "type": "function",
      "constant": true
    },
    {
      "inputs": [
        {
          "internalType": "uint256",
          "name": "tokenId",
          "type": "uint256"
        }
      ],
      "name": "tokenURI",
      "outputs": [
        {
          "internalType": "string",
          "name": "",
          "type": "string"
        }
      ],
      "stateMutability": "view",
      "type": "function",
      "constant": true
    },
    {
      "inputs": [
        {
          "internalType": "uint256",
          "name": "_newCost",
          "type": "uint256"
        }
      ],
      "name": "setCost",
      "outputs": [],
      "stateMutability": "nonpayable",
      "type": "function"
    },
    {
      "inputs": [
        {
          "internalType": "uint256",
          "name": "_newCost",
          "type": "uint256"
        }
      ],
      "name": "setPresaleCost",
      "outputs": [],
      "stateMutability": "nonpayable",
      "type": "function"
    },
    {
      "inputs": [
        {
          "internalType": "uint256",
          "name": "_newmaxMintAmount",
          "type": "uint256"
        }
      ],
      "name": "setmaxMintAmount",
      "outputs": [],
      "stateMutability": "nonpayable",
      "type": "function"
    },
    {
      "inputs": [
        {
          "internalType": "string",
          "name": "_newBaseURI",
          "type": "string"
        }
      ],
      "name": "setBaseURI",
      "outputs": [],
      "stateMutability": "nonpayable",
      "type": "function"
    },
    {
      "inputs": [
        {
          "internalType": "string",
          "name": "_newBaseExtension",
          "type": "string"
        }
      ],
      "name": "setBaseExtension",
      "outputs": [],
      "stateMutability": "nonpayable",
      "type": "function"
    },
    {
      "inputs": [
        {
          "internalType": "bool",
          "name": "_state",
          "type": "bool"
        }
      ],
      "name": "pause",
      "outputs": [],
      "stateMutability": "nonpayable",
      "type": "function"
    },
    {
      "inputs": [
        {
          "internalType": "address",
          "name": "_user",
          "type": "address"
        }
      ],
      "name": "whitelistUser",
      "outputs": [],
      "stateMutability": "nonpayable",
      "type": "function"
    },
    {
      "inputs": [
        {
          "internalType": "address",
          "name": "_user",
          "type": "address"
        }
      ],
      "name": "removeWhitelistUser",
      "outputs": [],
      "stateMutability": "nonpayable",
      "type": "function"
    },
    {
      "inputs": [
        {
          "internalType": "address",
          "name": "_user",
          "type": "address"
        }
      ],
      "name": "addPresaleUser",
      "outputs": [],
      "stateMutability": "nonpayable",
      "type": "function"
    },
    {
      "inputs": [
        {
          "internalType": "address[100]",
          "name": "_users",
          "type": "address[100]"
        }
      ],
      "name": "add100PresaleUsers",
      "outputs": [],
      "stateMutability": "nonpayable",
      "type": "function"
    },
    {
      "inputs": [
        {
          "internalType": "address",
          "name": "_user",
          "type": "address"
        }
      ],
      "name": "removePresaleUser",
      "outputs": [],
      "stateMutability": "nonpayable",
      "type": "function"
    },
    {
      "inputs": [],
      "name": "withdraw",
      "outputs": [],
      "stateMutability": "payable",
      "type": "function",
      "payable": true
    },
    {
      "inputs": [
        {
          "internalType": "uint256",
          "name": "_tokenId",
          "type": "uint256"
        },
        {
          "internalType": "address payable",
          "name": "_royaltiesRecipientAddress",
          "type": "address"
        },
        {
          "internalType": "uint96",
          "name": "_percentageBasesPoints",
          "type": "uint96"
        }
      ],
      "name": "setRoyalties",
      "outputs": [],
      "stateMutability": "nonpayable",
      "type": "function"
    },
    {
      "inputs": [
        {
          "internalType": "bytes4",
          "name": "interfaceId",
          "type": "bytes4"
        }
      ],
      "name": "supportsInterface",
      "outputs": [
        {
          "internalType": "bool",
          "name": "",
          "type": "bool"
        }
      ],
      "stateMutability": "view",
      "type": "function",
      "constant": true
    }
  ],
  "bytecode": "0x60806040526040518060400160405280600581526020017f2e6a736f6e000000000000000000000000000000000000000000000000000000815250600e90805190602001906200005192919062000f13565b5066b1a2bc2ec50000600f55666a94d74f430000601055612710601155600a6012556000601360006101000a81548160ff0219169083151502179055503480156200009b57600080fd5b506040518060400160405280600d81526020017f476f6f6679476f6c6665727273000000000000000000000000000000000000008152506040518060400160405280600981526020017f474659474c46455253000000000000000000000000000000000000000000000081525081600090805190602001906200012092919062000f13565b5080600190805190602001906200013992919062000f13565b5050506200015c620001506200019f60201b60201c565b620001a760201b60201c565b6200018660405180606001604052806036815260200162006dd4603691396200026d60201b60201c565b620001993360016200031860201b60201c565b6200167f565b600033905090565b6000600a60009054906101000a900473ffffffffffffffffffffffffffffffffffffffff16905081600a60006101000a81548173ffffffffffffffffffffffffffffffffffffffff021916908373ffffffffffffffffffffffffffffffffffffffff1602179055508173ffffffffffffffffffffffffffffffffffffffff168173ffffffffffffffffffffffffffffffffffffffff167f8be0079c531659141344cd1fd0a4f28419497f9722a3daafe3b4186f6b6457e060405160405180910390a35050565b6200027d6200019f60201b60201c565b73ffffffffffffffffffffffffffffffffffffffff16620002a36200050460201b60201c565b73ffffffffffffffffffffffffffffffffffffffff1614620002fc576040517f08c379a0000000000000000000000000000000000000000000000000000000008152600401620002f39062001024565b60405180910390fd5b80600c90805190602001906200031492919062000f13565b5050565b60006200032a6200052e60201b60201c565b9050601360009054906101000a900460ff16156200034757600080fd5b600082116200035557600080fd5b6012548211156200036557600080fd5b60115482826200037691906200107f565b11156200038257600080fd5b620003926200050460201b60201c565b73ffffffffffffffffffffffffffffffffffffffff163373ffffffffffffffffffffffffffffffffffffffff1614620004ba5760011515601460003373ffffffffffffffffffffffffffffffffffffffff1673ffffffffffffffffffffffffffffffffffffffff16815260200190815260200160002060009054906101000a900460ff16151514620004b95760011515601560003373ffffffffffffffffffffffffffffffffffffffff1673ffffffffffffffffffffffffffffffffffffffff16815260200190815260200160002060009054906101000a900460ff161515146200049a5781600f54620004879190620010dc565b3410156200049457600080fd5b620004b8565b81601054620004aa9190620010dc565b341015620004b757600080fd5b5b5b5b6000600190505b828111620004fe57620004e8848284620004dc91906200107f565b6200053b60201b60201c565b8080620004f5906200113d565b915050620004c1565b50505050565b6000600a60009054906101000a900473ffffffffffffffffffffffffffffffffffffffff16905090565b6000600880549050905090565b6200055d8282604051806020016040528060008152506200056160201b60201c565b5050565b620005738383620005cf60201b60201c565b620005886000848484620007b560201b60201c565b620005ca576040517f08c379a0000000000000000000000000000000000000000000000000000000008152600401620005c19062001201565b60405180910390fd5b505050565b600073ffffffffffffffffffffffffffffffffffffffff168273ffffffffffffffffffffffffffffffffffffffff16141562000642576040517f08c379a0000000000000000000000000000000000000000000000000000000008152600401620006399062001273565b60405180910390fd5b62000653816200095f60201b60201c565b1562000696576040517f08c379a00000000000000000000000000000000000000000000000000000000081526004016200068d90620012e5565b60405180910390fd5b620006aa60008383620009cb60201b60201c565b6001600360008473ffffffffffffffffffffffffffffffffffffffff1673ffffffffffffffffffffffffffffffffffffffff1681526020019081526020016000206000828254620006fc91906200107f565b92505081905550816002600083815260200190815260200160002060006101000a81548173ffffffffffffffffffffffffffffffffffffffff021916908373ffffffffffffffffffffffffffffffffffffffff160217905550808273ffffffffffffffffffffffffffffffffffffffff16600073ffffffffffffffffffffffffffffffffffffffff167fddf252ad1be2c89b69c2b068fc378daa952ba7f163c4a11628f55a4df523b3ef60405160405180910390a45050565b6000620007e38473ffffffffffffffffffffffffffffffffffffffff1662000b1260201b620027151760201c565b1562000952578373ffffffffffffffffffffffffffffffffffffffff1663150b7a02620008156200019f60201b60201c565b8786866040518563ffffffff1660e01b815260040162000839949392919062001401565b6020604051808303816000875af19250505080156200087857506040513d601f19601f82011682018060405250810190620008759190620014b7565b60015b62000901573d8060008114620008ab576040519150601f19603f3d011682016040523d82523d6000602084013e620008b0565b606091505b50600081511415620008f9576040517f08c379a0000000000000000000000000000000000000000000000000000000008152600401620008f09062001201565b60405180910390fd5b805181602001fd5b63150b7a0260e01b7bffffffffffffffffffffffffffffffffffffffffffffffffffffffff1916817bffffffffffffffffffffffffffffffffffffffffffffffffffffffff19161491505062000957565b600190505b949350505050565b60008073ffffffffffffffffffffffffffffffffffffffff166002600084815260200190815260200160002060009054906101000a900473ffffffffffffffffffffffffffffffffffffffff1673ffffffffffffffffffffffffffffffffffffffff1614159050919050565b620009e383838362000b2560201b620027281760201c565b600073ffffffffffffffffffffffffffffffffffffffff168373ffffffffffffffffffffffffffffffffffffffff16141562000a305762000a2a8162000b2a60201b60201c565b62000a78565b8173ffffffffffffffffffffffffffffffffffffffff168373ffffffffffffffffffffffffffffffffffffffff161462000a775762000a76838262000b7360201b60201c565b5b5b600073ffffffffffffffffffffffffffffffffffffffff168273ffffffffffffffffffffffffffffffffffffffff16141562000ac55762000abf8162000cf060201b60201c565b62000b0d565b8273ffffffffffffffffffffffffffffffffffffffff168273ffffffffffffffffffffffffffffffffffffffff161462000b0c5762000b0b828262000dcc60201b60201c565b5b5b505050565b600080823b905060008111915050919050565b505050565b6008805490506009600083815260200190815260200160002081905550600881908060018154018082558091505060019003906000526020600020016000909190919091505550565b6000600162000b8d8462000e5860201b62001bf41760201c565b62000b999190620014e9565b905060006007600084815260200190815260200160002054905081811462000c7f576000600660008673ffffffffffffffffffffffffffffffffffffffff1673ffffffffffffffffffffffffffffffffffffffff168152602001908152602001600020600084815260200190815260200160002054905080600660008773ffffffffffffffffffffffffffffffffffffffff1673ffffffffffffffffffffffffffffffffffffffff168152602001908152602001600020600084815260200190815260200160002081905550816007600083815260200190815260200160002081905550505b6007600084815260200190815260200160002060009055600660008573ffffffffffffffffffffffffffffffffffffffff1673ffffffffffffffffffffffffffffffffffffffff16815260200190815260200160002060008381526020019081526020016000206000905550505050565b6000600160088054905062000d069190620014e9565b905060006009600084815260200190815260200160002054905060006008838154811062000d395762000d3862001524565b5b90600052602060002001549050806008838154811062000d5e5762000d5d62001524565b5b90600052602060002001819055508160096000838152602001908152602001600020819055506009600085815260200190815260200160002060009055600880548062000db05762000daf62001553565b5b6001900381819060005260206000200160009055905550505050565b600062000de48362000e5860201b62001bf41760201c565b905081600660008573ffffffffffffffffffffffffffffffffffffffff1673ffffffffffffffffffffffffffffffffffffffff168152602001908152602001600020600083815260200190815260200160002081905550806007600084815260200190815260200160002081905550505050565b60008073ffffffffffffffffffffffffffffffffffffffff168273ffffffffffffffffffffffffffffffffffffffff16141562000ecc576040517f08c379a000000000000000000000000000000000000000000000000000000000815260040162000ec390620015f8565b60405180910390fd5b600360008373ffffffffffffffffffffffffffffffffffffffff1673ffffffffffffffffffffffffffffffffffffffff168152602001908152602001600020549050919050565b82805462000f219062001649565b90600052602060002090601f01602090048101928262000f45576000855562000f91565b82601f1062000f6057805160ff191683800117855562000f91565b8280016001018555821562000f91579182015b8281111562000f9057825182559160200191906001019062000f73565b5b50905062000fa0919062000fa4565b5090565b5b8082111562000fbf57600081600090555060010162000fa5565b5090565b600082825260208201905092915050565b7f4f776e61626c653a2063616c6c6572206973206e6f7420746865206f776e6572600082015250565b60006200100c60208362000fc3565b9150620010198262000fd4565b602082019050919050565b600060208201905081810360008301526200103f8162000ffd565b9050919050565b6000819050919050565b7f4e487b7100000000000000000000000000000000000000000000000000000000600052601160045260246000fd5b60006200108c8262001046565b9150620010998362001046565b9250827fffffffffffffffffffffffffffffffffffffffffffffffffffffffffffffffff03821115620010d157620010d062001050565b5b828201905092915050565b6000620010e98262001046565b9150620010f68362001046565b9250817fffffffffffffffffffffffffffffffffffffffffffffffffffffffffffffffff048311821515161562001132576200113162001050565b5b828202905092915050565b60006200114a8262001046565b91507fffffffffffffffffffffffffffffffffffffffffffffffffffffffffffffffff82141562001180576200117f62001050565b5b600182019050919050565b7f4552433732313a207472616e7366657220746f206e6f6e20455243373231526560008201527f63656976657220696d706c656d656e7465720000000000000000000000000000602082015250565b6000620011e960328362000fc3565b9150620011f6826200118b565b604082019050919050565b600060208201905081810360008301526200121c81620011da565b9050919050565b7f4552433732313a206d696e7420746f20746865207a65726f2061646472657373600082015250565b60006200125b60208362000fc3565b9150620012688262001223565b602082019050919050565b600060208201905081810360008301526200128e816200124c565b9050919050565b7f4552433732313a20746f6b656e20616c7265616479206d696e74656400000000600082015250565b6000620012cd601c8362000fc3565b9150620012da8262001295565b602082019050919050565b600060208201905081810360008301526200130081620012be565b9050919050565b600073ffffffffffffffffffffffffffffffffffffffff82169050919050565b6000620013348262001307565b9050919050565b620013468162001327565b82525050565b620013578162001046565b82525050565b600081519050919050565b600082825260208201905092915050565b60005b83811015620013995780820151818401526020810190506200137c565b83811115620013a9576000848401525b50505050565b6000601f19601f8301169050919050565b6000620013cd826200135d565b620013d9818562001368565b9350620013eb81856020860162001379565b620013f681620013af565b840191505092915050565b60006080820190506200141860008301876200133b565b6200142760208301866200133b565b6200143660408301856200134c565b81810360608301526200144a8184620013c0565b905095945050505050565b600080fd5b60007fffffffff0000000000000000000000000000000000000000000000000000000082169050919050565b62001491816200145a565b81146200149d57600080fd5b50565b600081519050620014b18162001486565b92915050565b600060208284031215620014d057620014cf62001455565b5b6000620014e084828501620014a0565b91505092915050565b6000620014f68262001046565b9150620015038362001046565b92508282101562001519576200151862001050565b5b828203905092915050565b7f4e487b7100000000000000000000000000000000000000000000000000000000600052603260045260246000fd5b7f4e487b7100000000000000000000000000000000000000000000000000000000600052603160045260246000fd5b7f4552433732313a2062616c616e636520717565727920666f7220746865207a6560008201527f726f206164647265737300000000000000000000000000000000000000000000602082015250565b6000620015e0602a8362000fc3565b9150620015ed8262001582565b604082019050919050565b600060208201905081810360008301526200161381620015d1565b9050919050565b7f4e487b7100000000000000000000000000000000000000000000000000000000600052602260045260246000fd5b600060028204905060018216806200166257607f821691505b602082108114156200167957620016786200161a565b5b50919050565b615745806200168f6000396000f3fe60806040526004361061027d5760003560e01c806355f804b31161014f578063a22cb465116100c1578063d5abeb011161007a578063d5abeb011461099f578063d936547e146109ca578063da3ef23f14610a07578063e985e9c514610a30578063ed931e1714610a6d578063f2fde38b14610a965761027d565b8063a22cb4651461087f578063b2f3e85e146108a8578063b88d4fde146108d1578063c6682862146108fa578063c87b56dd14610925578063cad96cca146109625761027d565b8063715018a611610113578063715018a6146107955780637f00c7a6146107ac5780638da5cb5b146107d55780638fbceaad146108005780638fdcf9421461082b57806395d89b41146108545761027d565b806355f804b31461069c5780635c975abb146106c55780636352211e146106f05780636c0360eb1461072d57806370a08231146107585761027d565b80632a55205a116101f357806342842e0e116101ac57806342842e0e1461057e578063438b6300146105a757806344a0d68a146105e45780634a4c560d1461060d5780634f6ccce714610636578063546857c7146106735761027d565b80632a55205a146104775780632f745c59146104b557806330b2264e146104f257806330cc7ae01461052f5780633ccfd60b1461055857806340c10f19146105625761027d565b806313faede61161024557806313faede614610379578063143094db146103a457806318160ddd146103cd578063239c70ae146103f857806323b872dd146104235780632a23d07d1461044c5761027d565b806301ffc9a71461028257806302329a29146102bf57806306fdde03146102e8578063081812fc14610313578063095ea7b314610350575b600080fd5b34801561028e57600080fd5b506102a960048036038101906102a49190613c65565b610abf565b6040516102b69190613cad565b60405180910390f35b3480156102cb57600080fd5b506102e660048036038101906102e19190613cf4565b610b7e565b005b3480156102f457600080fd5b506102fd610c17565b60405161030a9190613dba565b60405180910390f35b34801561031f57600080fd5b5061033a60048036038101906103359190613e12565b610ca9565b6040516103479190613e80565b60405180910390f35b34801561035c57600080fd5b5061037760048036038101906103729190613ec7565b610d2e565b005b34801561038557600080fd5b5061038e610e46565b60405161039b9190613f16565b60405180910390f35b3480156103b057600080fd5b506103cb60048036038101906103c69190613fb3565b610e4c565b005b3480156103d957600080fd5b506103e2610fc7565b6040516103ef9190613f16565b60405180910390f35b34801561040457600080fd5b5061040d610fd4565b60405161041a9190613f16565b60405180910390f35b34801561042f57600080fd5b5061044a60048036038101906104459190614006565b610fda565b005b34801561045857600080fd5b5061046161103a565b60405161046e9190613f16565b60405180910390f35b34801561048357600080fd5b5061049e60048036038101906104999190614059565b611040565b6040516104ac929190614099565b60405180910390f35b3480156104c157600080fd5b506104dc60048036038101906104d79190613ec7565b611212565b6040516104e99190613f16565b60405180910390f35b3480156104fe57600080fd5b50610519600480360381019061051491906140c2565b6112b7565b6040516105269190613cad565b60405180910390f35b34801561053b57600080fd5b50610556600480360381019061055191906140c2565b6112d7565b005b6105606113ae565b005b61057c60048036038101906105779190613ec7565b6114a3565b005b34801561058a57600080fd5b506105a560048036038101906105a09190614006565b611661565b005b3480156105b357600080fd5b506105ce60048036038101906105c991906140c2565b611681565b6040516105db91906141ad565b60405180910390f35b3480156105f057600080fd5b5061060b60048036038101906106069190613e12565b61172f565b005b34801561061957600080fd5b50610634600480360381019061062f91906140c2565b6117b5565b005b34801561064257600080fd5b5061065d60048036038101906106589190613e12565b61188c565b60405161066a9190613f16565b60405180910390f35b34801561067f57600080fd5b5061069a60048036038101906106959190614305565b6118fd565b005b3480156106a857600080fd5b506106c360048036038101906106be91906143e8565b611a0b565b005b3480156106d157600080fd5b506106da611aa1565b6040516106e79190613cad565b60405180910390f35b3480156106fc57600080fd5b5061071760048036038101906107129190613e12565b611ab4565b6040516107249190613e80565b60405180910390f35b34801561073957600080fd5b50610742611b66565b60405161074f9190613dba565b60405180910390f35b34801561076457600080fd5b5061077f600480360381019061077a91906140c2565b611bf4565b60405161078c9190613f16565b60405180910390f35b3480156107a157600080fd5b506107aa611cac565b005b3480156107b857600080fd5b506107d360048036038101906107ce9190613e12565b611d34565b005b3480156107e157600080fd5b506107ea611dba565b6040516107f79190613e80565b60405180910390f35b34801561080c57600080fd5b50610815611de4565b6040516108229190613f16565b60405180910390f35b34801561083757600080fd5b50610852600480360381019061084d9190613e12565b611dea565b005b34801561086057600080fd5b50610869611e70565b6040516108769190613dba565b60405180910390f35b34801561088b57600080fd5b506108a660048036038101906108a19190614431565b611f02565b005b3480156108b457600080fd5b506108cf60048036038101906108ca91906140c2565b612083565b005b3480156108dd57600080fd5b506108f860048036038101906108f39190614512565b61215a565b005b34801561090657600080fd5b5061090f6121bc565b60405161091c9190613dba565b60405180910390f35b34801561093157600080fd5b5061094c60048036038101906109479190613e12565b61224a565b6040516109599190613dba565b60405180910390f35b34801561096e57600080fd5b5061098960048036038101906109849190613e12565b6122f4565b6040516109969190614691565b60405180910390f35b3480156109ab57600080fd5b506109b46123f6565b6040516109c19190613f16565b60405180910390f35b3480156109d657600080fd5b506109f160048036038101906109ec91906140c2565b6123fc565b6040516109fe9190613cad565b60405180910390f35b348015610a1357600080fd5b50610a2e6004803603810190610a2991906143e8565b61241c565b005b348015610a3c57600080fd5b50610a576004803603810190610a5291906146b3565b6124b2565b604051610a649190613cad565b60405180910390f35b348015610a7957600080fd5b50610a946004803603810190610a8f91906140c2565b612546565b005b348015610aa257600080fd5b50610abd6004803603810190610ab891906140c2565b61261d565b005b600063cad96cca60e01b7bffffffffffffffffffffffffffffffffffffffffffffffffffffffff1916827bffffffffffffffffffffffffffffffffffffffffffffffffffffffff19161415610b175760019050610b79565b632a55205a60e01b7bffffffffffffffffffffffffffffffffffffffffffffffffffffffff1916827bffffffffffffffffffffffffffffffffffffffffffffffffffffffff19161415610b6d5760019050610b79565b610b768261272d565b90505b919050565b610b866127a7565b73ffffffffffffffffffffffffffffffffffffffff16610ba4611dba565b73ffffffffffffffffffffffffffffffffffffffff1614610bfa576040517f08c379a0000000000000000000000000000000000000000000000000000000008152600401610bf19061473f565b60405180910390fd5b80601360006101000a81548160ff02191690831515021790555050565b606060008054610c269061478e565b80601f0160208091040260200160405190810160405280929190818152602001828054610c529061478e565b8015610c9f5780601f10610c7457610100808354040283529160200191610c9f565b820191906000526020600020905b815481529060010190602001808311610c8257829003601f168201915b5050505050905090565b6000610cb4826127af565b610cf3576040517f08c379a0000000000000000000000000000000000000000000000000000000008152600401610cea90614832565b60405180910390fd5b6004600083815260200190815260200160002060009054906101000a900473ffffffffffffffffffffffffffffffffffffffff169050919050565b6000610d3982611ab4565b90508073ffffffffffffffffffffffffffffffffffffffff168373ffffffffffffffffffffffffffffffffffffffff161415610daa576040517f08c379a0000000000000000000000000000000000000000000000000000000008152600401610da1906148c4565b60405180910390fd5b8073ffffffffffffffffffffffffffffffffffffffff16610dc96127a7565b73ffffffffffffffffffffffffffffffffffffffff161480610df85750610df781610df26127a7565b6124b2565b5b610e37576040517f08c379a0000000000000000000000000000000000000000000000000000000008152600401610e2e90614956565b60405180910390fd5b610e41838361281b565b505050565b600f5481565b610e546127a7565b73ffffffffffffffffffffffffffffffffffffffff16610e72611dba565b73ffffffffffffffffffffffffffffffffffffffff1614610ec8576040517f08c379a0000000000000000000000000000000000000000000000000000000008152600401610ebf9061473f565b60405180910390fd5b6000600167ffffffffffffffff811115610ee557610ee46141d4565b5b604051908082528060200260200182016040528015610f1e57816020015b610f0b613b18565b815260200190600190039081610f035790505b5090508181600081518110610f3657610f35614976565b5b6020026020010151602001906bffffffffffffffffffffffff1690816bffffffffffffffffffffffff16815250508281600081518110610f7957610f78614976565b5b60200260200101516000019073ffffffffffffffffffffffffffffffffffffffff16908173ffffffffffffffffffffffffffffffffffffffff1681525050610fc184826128d4565b50505050565b6000600880549050905090565b60125481565b610feb610fe56127a7565b82612b57565b61102a576040517f08c379a000000000000000000000000000000000000000000000000000000000815260040161102190614a17565b60405180910390fd5b611035838383612c35565b505050565b60105481565b6000806000600b600086815260200190815260200160002080549050141561106f57600091506000905061120b565b6000600b6000868152602001908152602001600020805480602002602001604051908101604052809291908181526020016000905b82821015611166578382906000526020600020016040518060400160405290816000820160009054906101000a900473ffffffffffffffffffffffffffffffffffffffff1673ffffffffffffffffffffffffffffffffffffffff1673ffffffffffffffffffffffffffffffffffffffff1681526020016000820160149054906101000a90046bffffffffffffffffffffffff166bffffffffffffffffffffffff166bffffffffffffffffffffffff1681525050815260200190600101906110a4565b505050509050806000815181106111805761117f614976565b5b6020026020010151600001519250600080600090505b82518110156111ec578281815181106111b2576111b1614976565b5b6020026020010151602001516bffffffffffffffffffffffff16826111d79190614a66565b915080806111e490614abc565b915050611196565b5061271085826111fc9190614b05565b6112069190614b8e565b925050505b9250929050565b600061121d83611bf4565b821061125e576040517f08c379a000000000000000000000000000000000000000000000000000000000815260040161125590614c31565b60405180910390fd5b600660008473ffffffffffffffffffffffffffffffffffffffff1673ffffffffffffffffffffffffffffffffffffffff168152602001908152602001600020600083815260200190815260200160002054905092915050565b60156020528060005260406000206000915054906101000a900460ff1681565b6112df6127a7565b73ffffffffffffffffffffffffffffffffffffffff166112fd611dba565b73ffffffffffffffffffffffffffffffffffffffff1614611353576040517f08c379a000000000000000000000000000000000000000000000000000000000815260040161134a9061473f565b60405180910390fd5b6000601460008373ffffffffffffffffffffffffffffffffffffffff1673ffffffffffffffffffffffffffffffffffffffff16815260200190815260200160002060006101000a81548160ff02191690831515021790555050565b6113b66127a7565b73ffffffffffffffffffffffffffffffffffffffff166113d4611dba565b73ffffffffffffffffffffffffffffffffffffffff161461142a576040517f08c379a00000000000000000000000000000000000000000000000000000000081526004016114219061473f565b60405180910390fd5b60003373ffffffffffffffffffffffffffffffffffffffff164760405161145090614c82565b60006040518083038185875af1925050503d806000811461148d576040519150601f19603f3d011682016040523d82523d6000602084013e611492565b606091505b50509050806114a057600080fd5b50565b60006114ad610fc7565b9050601360009054906101000a900460ff16156114c957600080fd5b600082116114d657600080fd5b6012548211156114e557600080fd5b60115482826114f49190614a66565b11156114ff57600080fd5b611507611dba565b73ffffffffffffffffffffffffffffffffffffffff163373ffffffffffffffffffffffffffffffffffffffff16146116255760011515601460003373ffffffffffffffffffffffffffffffffffffffff1673ffffffffffffffffffffffffffffffffffffffff16815260200190815260200160002060009054906101000a900460ff161515146116245760011515601560003373ffffffffffffffffffffffffffffffffffffffff1673ffffffffffffffffffffffffffffffffffffffff16815260200190815260200160002060009054906101000a900460ff161515146116085781600f546115f79190614b05565b34101561160357600080fd5b611623565b816010546116169190614b05565b34101561162257600080fd5b5b5b5b6000600190505b82811161165b576116488482846116439190614a66565b612e91565b808061165390614abc565b91505061162c565b50505050565b61167c8383836040518060200160405280600081525061215a565b505050565b6060600061168e83611bf4565b905060008167ffffffffffffffff8111156116ac576116ab6141d4565b5b6040519080825280602002602001820160405280156116da5781602001602082028036833780820191505090505b50905060005b82811015611724576116f28582611212565b82828151811061170557611704614976565b5b602002602001018181525050808061171c90614abc565b9150506116e0565b508092505050919050565b6117376127a7565b73ffffffffffffffffffffffffffffffffffffffff16611755611dba565b73ffffffffffffffffffffffffffffffffffffffff16146117ab576040517f08c379a00000000000000000000000000000000000000000000000000000000081526004016117a29061473f565b60405180910390fd5b80600f8190555050565b6117bd6127a7565b73ffffffffffffffffffffffffffffffffffffffff166117db611dba565b73ffffffffffffffffffffffffffffffffffffffff1614611831576040517f08c379a00000000000000000000000000000000000000000000000000000000081526004016118289061473f565b60405180910390fd5b6001601460008373ffffffffffffffffffffffffffffffffffffffff1673ffffffffffffffffffffffffffffffffffffffff16815260200190815260200160002060006101000a81548160ff02191690831515021790555050565b6000611896610fc7565b82106118d7576040517f08c379a00000000000000000000000000000000000000000000000000000000081526004016118ce90614d09565b60405180910390fd5b600882815481106118eb576118ea614976565b5b90600052602060002001549050919050565b6119056127a7565b73ffffffffffffffffffffffffffffffffffffffff16611923611dba565b73ffffffffffffffffffffffffffffffffffffffff1614611979576040517f08c379a00000000000000000000000000000000000000000000000000000000081526004016119709061473f565b60405180910390fd5b60005b6002811015611a075760016015600084846064811061199e5761199d614976565b5b602002015173ffffffffffffffffffffffffffffffffffffffff1673ffffffffffffffffffffffffffffffffffffffff16815260200190815260200160002060006101000a81548160ff02191690831515021790555080806119ff90614abc565b91505061197c565b5050565b611a136127a7565b73ffffffffffffffffffffffffffffffffffffffff16611a31611dba565b73ffffffffffffffffffffffffffffffffffffffff1614611a87576040517f08c379a0000000000000000000000000000000000000000000000000000000008152600401611a7e9061473f565b60405180910390fd5b80600c9080519060200190611a9d929190613b56565b5050565b601360009054906101000a900460ff1681565b6000806002600084815260200190815260200160002060009054906101000a900473ffffffffffffffffffffffffffffffffffffffff169050600073ffffffffffffffffffffffffffffffffffffffff168173ffffffffffffffffffffffffffffffffffffffff161415611b5d576040517f08c379a0000000000000000000000000000000000000000000000000000000008152600401611b5490614d9b565b60405180910390fd5b80915050919050565b600c8054611b739061478e565b80601f0160208091040260200160405190810160405280929190818152602001828054611b9f9061478e565b8015611bec5780601f10611bc157610100808354040283529160200191611bec565b820191906000526020600020905b815481529060010190602001808311611bcf57829003601f168201915b505050505081565b60008073ffffffffffffffffffffffffffffffffffffffff168273ffffffffffffffffffffffffffffffffffffffff161415611c65576040517f08c379a0000000000000000000000000000000000000000000000000000000008152600401611c5c90614e2d565b60405180910390fd5b600360008373ffffffffffffffffffffffffffffffffffffffff1673ffffffffffffffffffffffffffffffffffffffff168152602001908152602001600020549050919050565b611cb46127a7565b73ffffffffffffffffffffffffffffffffffffffff16611cd2611dba565b73ffffffffffffffffffffffffffffffffffffffff1614611d28576040517f08c379a0000000000000000000000000000000000000000000000000000000008152600401611d1f9061473f565b60405180910390fd5b611d326000612eaf565b565b611d3c6127a7565b73ffffffffffffffffffffffffffffffffffffffff16611d5a611dba565b73ffffffffffffffffffffffffffffffffffffffff1614611db0576040517f08c379a0000000000000000000000000000000000000000000000000000000008152600401611da79061473f565b60405180910390fd5b8060128190555050565b6000600a60009054906101000a900473ffffffffffffffffffffffffffffffffffffffff16905090565b600d5481565b611df26127a7565b73ffffffffffffffffffffffffffffffffffffffff16611e10611dba565b73ffffffffffffffffffffffffffffffffffffffff1614611e66576040517f08c379a0000000000000000000000000000000000000000000000000000000008152600401611e5d9061473f565b60405180910390fd5b8060108190555050565b606060018054611e7f9061478e565b80601f0160208091040260200160405190810160405280929190818152602001828054611eab9061478e565b8015611ef85780601f10611ecd57610100808354040283529160200191611ef8565b820191906000526020600020905b815481529060010190602001808311611edb57829003601f168201915b5050505050905090565b611f0a6127a7565b73ffffffffffffffffffffffffffffffffffffffff168273ffffffffffffffffffffffffffffffffffffffff161415611f78576040517f08c379a0000000000000000000000000000000000000000000000000000000008152600401611f6f90614e99565b60405180910390fd5b8060056000611f856127a7565b73ffffffffffffffffffffffffffffffffffffffff1673ffffffffffffffffffffffffffffffffffffffff16815260200190815260200160002060008473ffffffffffffffffffffffffffffffffffffffff1673ffffffffffffffffffffffffffffffffffffffff16815260200190815260200160002060006101000a81548160ff0219169083151502179055508173ffffffffffffffffffffffffffffffffffffffff166120326127a7565b73ffffffffffffffffffffffffffffffffffffffff167f17307eab39ab6107e8899845ad3d59bd9653f200f220920489ca2b5937696c31836040516120779190613cad565b60405180910390a35050565b61208b6127a7565b73ffffffffffffffffffffffffffffffffffffffff166120a9611dba565b73ffffffffffffffffffffffffffffffffffffffff16146120ff576040517f08c379a00000000000000000000000000000000000000000000000000000000081526004016120f69061473f565b60405180910390fd5b6001601560008373ffffffffffffffffffffffffffffffffffffffff1673ffffffffffffffffffffffffffffffffffffffff16815260200190815260200160002060006101000a81548160ff02191690831515021790555050565b61216b6121656127a7565b83612b57565b6121aa576040517f08c379a00000000000000000000000000000000000000000000000000000000081526004016121a190614a17565b60405180910390fd5b6121b684848484612f75565b50505050565b600e80546121c99061478e565b80601f01602080910402602001604051908101604052809291908181526020018280546121f59061478e565b80156122425780601f1061221757610100808354040283529160200191612242565b820191906000526020600020905b81548152906001019060200180831161222557829003601f168201915b505050505081565b6060612255826127af565b612294576040517f08c379a000000000000000000000000000000000000000000000000000000000815260040161228b90614f2b565b60405180910390fd5b600061229e612fd1565b905060008151116122be57604051806020016040528060008152506122ec565b806122c884613063565b600e6040516020016122dc9392919061501b565b6040516020818303038152906040525b915050919050565b6060600b6000838152602001908152602001600020805480602002602001604051908101604052809291908181526020016000905b828210156123eb578382906000526020600020016040518060400160405290816000820160009054906101000a900473ffffffffffffffffffffffffffffffffffffffff1673ffffffffffffffffffffffffffffffffffffffff1673ffffffffffffffffffffffffffffffffffffffff1681526020016000820160149054906101000a90046bffffffffffffffffffffffff166bffffffffffffffffffffffff166bffffffffffffffffffffffff168152505081526020019060010190612329565b505050509050919050565b60115481565b60146020528060005260406000206000915054906101000a900460ff1681565b6124246127a7565b73ffffffffffffffffffffffffffffffffffffffff16612442611dba565b73ffffffffffffffffffffffffffffffffffffffff1614612498576040517f08c379a000000000000000000000000000000000000000000000000000000000815260040161248f9061473f565b60405180910390fd5b80600e90805190602001906124ae929190613b56565b5050565b6000600560008473ffffffffffffffffffffffffffffffffffffffff1673ffffffffffffffffffffffffffffffffffffffff16815260200190815260200160002060008373ffffffffffffffffffffffffffffffffffffffff1673ffffffffffffffffffffffffffffffffffffffff16815260200190815260200160002060009054906101000a900460ff16905092915050565b61254e6127a7565b73ffffffffffffffffffffffffffffffffffffffff1661256c611dba565b73ffffffffffffffffffffffffffffffffffffffff16146125c2576040517f08c379a00000000000000000000000000000000000000000000000000000000081526004016125b99061473f565b60405180910390fd5b6000601560008373ffffffffffffffffffffffffffffffffffffffff1673ffffffffffffffffffffffffffffffffffffffff16815260200190815260200160002060006101000a81548160ff02191690831515021790555050565b6126256127a7565b73ffffffffffffffffffffffffffffffffffffffff16612643611dba565b73ffffffffffffffffffffffffffffffffffffffff1614612699576040517f08c379a00000000000000000000000000000000000000000000000000000000081526004016126909061473f565b60405180910390fd5b600073ffffffffffffffffffffffffffffffffffffffff168173ffffffffffffffffffffffffffffffffffffffff161415612709576040517f08c379a0000000000000000000000000000000000000000000000000000000008152600401612700906150be565b60405180910390fd5b61271281612eaf565b50565b600080823b905060008111915050919050565b505050565b60007f780e9d63000000000000000000000000000000000000000000000000000000007bffffffffffffffffffffffffffffffffffffffffffffffffffffffff1916827bffffffffffffffffffffffffffffffffffffffffffffffffffffffff191614806127a0575061279f826131c4565b5b9050919050565b600033905090565b60008073ffffffffffffffffffffffffffffffffffffffff166002600084815260200190815260200160002060009054906101000a900473ffffffffffffffffffffffffffffffffffffffff1673ffffffffffffffffffffffffffffffffffffffff1614159050919050565b816004600083815260200190815260200160002060006101000a81548173ffffffffffffffffffffffffffffffffffffffff021916908373ffffffffffffffffffffffffffffffffffffffff160217905550808273ffffffffffffffffffffffffffffffffffffffff1661288e83611ab4565b73ffffffffffffffffffffffffffffffffffffffff167f8c5be1e5ebec7d5bd14f71427d1e84f3dd0314c0f7b2291e5b200ac8c7c3b92560405160405180910390a45050565b600080600090505b8251811015612b0357600073ffffffffffffffffffffffffffffffffffffffff168382815181106129105761290f614976565b5b60200260200101516000015173ffffffffffffffffffffffffffffffffffffffff161415612973576040517f08c379a000000000000000000000000000000000000000000000000000000000815260040161296a9061512a565b60405180910390fd5b600083828151811061298857612987614976565b5b6020026020010151602001516bffffffffffffffffffffffff1614156129e3576040517f08c379a00000000000000000000000000000000000000000000000000000000081526004016129da90615196565b60405180910390fd5b8281815181106129f6576129f5614976565b5b6020026020010151602001516bffffffffffffffffffffffff1682612a1b9190614a66565b9150600b6000858152602001908152602001600020838281518110612a4357612a42614976565b5b60200260200101519080600181540180825580915050600190039060005260206000200160009091909190915060008201518160000160006101000a81548173ffffffffffffffffffffffffffffffffffffffff021916908373ffffffffffffffffffffffffffffffffffffffff16021790555060208201518160000160146101000a8154816bffffffffffffffffffffffff02191690836bffffffffffffffffffffffff16021790555050508080612afb90614abc565b9150506128dc565b506127108110612b48576040517f08c379a0000000000000000000000000000000000000000000000000000000008152600401612b3f90615228565b60405180910390fd5b612b5283836132a6565b505050565b6000612b62826127af565b612ba1576040517f08c379a0000000000000000000000000000000000000000000000000000000008152600401612b98906152ba565b60405180910390fd5b6000612bac83611ab4565b90508073ffffffffffffffffffffffffffffffffffffffff168473ffffffffffffffffffffffffffffffffffffffff161480612c1b57508373ffffffffffffffffffffffffffffffffffffffff16612c0384610ca9565b73ffffffffffffffffffffffffffffffffffffffff16145b80612c2c5750612c2b81856124b2565b5b91505092915050565b8273ffffffffffffffffffffffffffffffffffffffff16612c5582611ab4565b73ffffffffffffffffffffffffffffffffffffffff1614612cab576040517f08c379a0000000000000000000000000000000000000000000000000000000008152600401612ca29061534c565b60405180910390fd5b600073ffffffffffffffffffffffffffffffffffffffff168273ffffffffffffffffffffffffffffffffffffffff161415612d1b576040517f08c379a0000000000000000000000000000000000000000000000000000000008152600401612d12906153de565b60405180910390fd5b612d268383836132e3565b612d3160008261281b565b6001600360008573ffffffffffffffffffffffffffffffffffffffff1673ffffffffffffffffffffffffffffffffffffffff1681526020019081526020016000206000828254612d8191906153fe565b925050819055506001600360008473ffffffffffffffffffffffffffffffffffffffff1673ffffffffffffffffffffffffffffffffffffffff1681526020019081526020016000206000828254612dd89190614a66565b92505081905550816002600083815260200190815260200160002060006101000a81548173ffffffffffffffffffffffffffffffffffffffff021916908373ffffffffffffffffffffffffffffffffffffffff160217905550808273ffffffffffffffffffffffffffffffffffffffff168473ffffffffffffffffffffffffffffffffffffffff167fddf252ad1be2c89b69c2b068fc378daa952ba7f163c4a11628f55a4df523b3ef60405160405180910390a4505050565b612eab8282604051806020016040528060008152506133f7565b5050565b6000600a60009054906101000a900473ffffffffffffffffffffffffffffffffffffffff16905081600a60006101000a81548173ffffffffffffffffffffffffffffffffffffffff021916908373ffffffffffffffffffffffffffffffffffffffff1602179055508173ffffffffffffffffffffffffffffffffffffffff168173ffffffffffffffffffffffffffffffffffffffff167f8be0079c531659141344cd1fd0a4f28419497f9722a3daafe3b4186f6b6457e060405160405180910390a35050565b612f80848484612c35565b612f8c84848484613452565b612fcb576040517f08c379a0000000000000000000000000000000000000000000000000000000008152600401612fc2906154a4565b60405180910390fd5b50505050565b6060600c8054612fe09061478e565b80601f016020809104026020016040519081016040528092919081815260200182805461300c9061478e565b80156130595780601f1061302e57610100808354040283529160200191613059565b820191906000526020600020905b81548152906001019060200180831161303c57829003601f168201915b5050505050905090565b606060008214156130ab576040518060400160405280600181526020017f300000000000000000000000000000000000000000000000000000000000000081525090506131bf565b600082905060005b600082146130dd5780806130c690614abc565b915050600a826130d69190614b8e565b91506130b3565b60008167ffffffffffffffff8111156130f9576130f86141d4565b5b6040519080825280601f01601f19166020018201604052801561312b5781602001600182028036833780820191505090505b5090505b600085146131b85760018261314491906153fe565b9150600a8561315391906154c4565b603061315f9190614a66565b60f81b81838151811061317557613174614976565b5b60200101907effffffffffffffffffffffffffffffffffffffffffffffffffffffffffffff1916908160001a905350600a856131b19190614b8e565b945061312f565b8093505050505b919050565b60007f80ac58cd000000000000000000000000000000000000000000000000000000007bffffffffffffffffffffffffffffffffffffffffffffffffffffffff1916827bffffffffffffffffffffffffffffffffffffffffffffffffffffffff1916148061328f57507f5b5e139f000000000000000000000000000000000000000000000000000000007bffffffffffffffffffffffffffffffffffffffffffffffffffffffff1916827bffffffffffffffffffffffffffffffffffffffffffffffffffffffff1916145b8061329f575061329e826135da565b5b9050919050565b7f3fa96d7b6bcbfe71ef171666d84db3cf52fa2d1c8afdb1cc8e486177f208b7df82826040516132d79291906154f5565b60405180910390a15050565b6132ee838383612728565b600073ffffffffffffffffffffffffffffffffffffffff168373ffffffffffffffffffffffffffffffffffffffff1614156133315761332c81613644565b613370565b8173ffffffffffffffffffffffffffffffffffffffff168373ffffffffffffffffffffffffffffffffffffffff161461336f5761336e838261368d565b5b5b600073ffffffffffffffffffffffffffffffffffffffff168273ffffffffffffffffffffffffffffffffffffffff1614156133b3576133ae816137fa565b6133f2565b8273ffffffffffffffffffffffffffffffffffffffff168273ffffffffffffffffffffffffffffffffffffffff16146133f1576133f082826138cb565b5b5b505050565b613401838361394a565b61340e6000848484613452565b61344d576040517f08c379a0000000000000000000000000000000000000000000000000000000008152600401613444906154a4565b60405180910390fd5b505050565b60006134738473ffffffffffffffffffffffffffffffffffffffff16612715565b156135cd578373ffffffffffffffffffffffffffffffffffffffff1663150b7a0261349c6127a7565b8786866040518563ffffffff1660e01b81526004016134be949392919061557a565b6020604051808303816000875af19250505080156134fa57506040513d601f19601f820116820180604052508101906134f791906155db565b60015b61357d573d806000811461352a576040519150601f19603f3d011682016040523d82523d6000602084013e61352f565b606091505b50600081511415613575576040517f08c379a000000000000000000000000000000000000000000000000000000000815260040161356c906154a4565b60405180910390fd5b805181602001fd5b63150b7a0260e01b7bffffffffffffffffffffffffffffffffffffffffffffffffffffffff1916817bffffffffffffffffffffffffffffffffffffffffffffffffffffffff1916149150506135d2565b600190505b949350505050565b60007f01ffc9a7000000000000000000000000000000000000000000000000000000007bffffffffffffffffffffffffffffffffffffffffffffffffffffffff1916827bffffffffffffffffffffffffffffffffffffffffffffffffffffffff1916149050919050565b6008805490506009600083815260200190815260200160002081905550600881908060018154018082558091505060019003906000526020600020016000909190919091505550565b6000600161369a84611bf4565b6136a491906153fe565b9050600060076000848152602001908152602001600020549050818114613789576000600660008673ffffffffffffffffffffffffffffffffffffffff1673ffffffffffffffffffffffffffffffffffffffff168152602001908152602001600020600084815260200190815260200160002054905080600660008773ffffffffffffffffffffffffffffffffffffffff1673ffffffffffffffffffffffffffffffffffffffff168152602001908152602001600020600084815260200190815260200160002081905550816007600083815260200190815260200160002081905550505b6007600084815260200190815260200160002060009055600660008573ffffffffffffffffffffffffffffffffffffffff1673ffffffffffffffffffffffffffffffffffffffff16815260200190815260200160002060008381526020019081526020016000206000905550505050565b6000600160088054905061380e91906153fe565b905060006009600084815260200190815260200160002054905060006008838154811061383e5761383d614976565b5b9060005260206000200154905080600883815481106138605761385f614976565b5b9060005260206000200181905550816009600083815260200190815260200160002081905550600960008581526020019081526020016000206000905560088054806138af576138ae615608565b5b6001900381819060005260206000200160009055905550505050565b60006138d683611bf4565b905081600660008573ffffffffffffffffffffffffffffffffffffffff1673ffffffffffffffffffffffffffffffffffffffff168152602001908152602001600020600083815260200190815260200160002081905550806007600084815260200190815260200160002081905550505050565b600073ffffffffffffffffffffffffffffffffffffffff168273ffffffffffffffffffffffffffffffffffffffff1614156139ba576040517f08c379a00000000000000000000000000000000000000000000000000000000081526004016139b190615683565b60405180910390fd5b6139c3816127af565b15613a03576040517f08c379a00000000000000000000000000000000000000000000000000000000081526004016139fa906156ef565b60405180910390fd5b613a0f600083836132e3565b6001600360008473ffffffffffffffffffffffffffffffffffffffff1673ffffffffffffffffffffffffffffffffffffffff1681526020019081526020016000206000828254613a5f9190614a66565b92505081905550816002600083815260200190815260200160002060006101000a81548173ffffffffffffffffffffffffffffffffffffffff021916908373ffffffffffffffffffffffffffffffffffffffff160217905550808273ffffffffffffffffffffffffffffffffffffffff16600073ffffffffffffffffffffffffffffffffffffffff167fddf252ad1be2c89b69c2b068fc378daa952ba7f163c4a11628f55a4df523b3ef60405160405180910390a45050565b6040518060400160405280600073ffffffffffffffffffffffffffffffffffffffff16815260200160006bffffffffffffffffffffffff1681525090565b828054613b629061478e565b90600052602060002090601f016020900481019282613b845760008555613bcb565b82601f10613b9d57805160ff1916838001178555613bcb565b82800160010185558215613bcb579182015b82811115613bca578251825591602001919060010190613baf565b5b509050613bd89190613bdc565b5090565b5b80821115613bf5576000816000905550600101613bdd565b5090565b6000604051905090565b600080fd5b600080fd5b60007fffffffff0000000000000000000000000000000000000000000000000000000082169050919050565b613c4281613c0d565b8114613c4d57600080fd5b50565b600081359050613c5f81613c39565b92915050565b600060208284031215613c7b57613c7a613c03565b5b6000613c8984828501613c50565b91505092915050565b60008115159050919050565b613ca781613c92565b82525050565b6000602082019050613cc26000830184613c9e565b92915050565b613cd181613c92565b8114613cdc57600080fd5b50565b600081359050613cee81613cc8565b92915050565b600060208284031215613d0a57613d09613c03565b5b6000613d1884828501613cdf565b91505092915050565b600081519050919050565b600082825260208201905092915050565b60005b83811015613d5b578082015181840152602081019050613d40565b83811115613d6a576000848401525b50505050565b6000601f19601f8301169050919050565b6000613d8c82613d21565b613d968185613d2c565b9350613da6818560208601613d3d565b613daf81613d70565b840191505092915050565b60006020820190508181036000830152613dd48184613d81565b905092915050565b6000819050919050565b613def81613ddc565b8114613dfa57600080fd5b50565b600081359050613e0c81613de6565b92915050565b600060208284031215613e2857613e27613c03565b5b6000613e3684828501613dfd565b91505092915050565b600073ffffffffffffffffffffffffffffffffffffffff82169050919050565b6000613e6a82613e3f565b9050919050565b613e7a81613e5f565b82525050565b6000602082019050613e956000830184613e71565b92915050565b613ea481613e5f565b8114613eaf57600080fd5b50565b600081359050613ec181613e9b565b92915050565b60008060408385031215613ede57613edd613c03565b5b6000613eec85828601613eb2565b9250506020613efd85828601613dfd565b9150509250929050565b613f1081613ddc565b82525050565b6000602082019050613f2b6000830184613f07565b92915050565b6000613f3c82613e3f565b9050919050565b613f4c81613f31565b8114613f5757600080fd5b50565b600081359050613f6981613f43565b92915050565b60006bffffffffffffffffffffffff82169050919050565b613f9081613f6f565b8114613f9b57600080fd5b50565b600081359050613fad81613f87565b92915050565b600080600060608486031215613fcc57613fcb613c03565b5b6000613fda86828701613dfd565b9350506020613feb86828701613f5a565b9250506040613ffc86828701613f9e565b9150509250925092565b60008060006060848603121561401f5761401e613c03565b5b600061402d86828701613eb2565b935050602061403e86828701613eb2565b925050604061404f86828701613dfd565b9150509250925092565b600080604083850312156140705761406f613c03565b5b600061407e85828601613dfd565b925050602061408f85828601613dfd565b9150509250929050565b60006040820190506140ae6000830185613e71565b6140bb6020830184613f07565b9392505050565b6000602082840312156140d8576140d7613c03565b5b60006140e684828501613eb2565b91505092915050565b600081519050919050565b600082825260208201905092915050565b6000819050602082019050919050565b61412481613ddc565b82525050565b6000614136838361411b565b60208301905092915050565b6000602082019050919050565b600061415a826140ef565b61416481856140fa565b935061416f8361410b565b8060005b838110156141a0578151614187888261412a565b975061419283614142565b925050600181019050614173565b5085935050505092915050565b600060208201905081810360008301526141c7818461414f565b905092915050565b600080fd5b7f4e487b7100000000000000000000000000000000000000000000000000000000600052604160045260246000fd5b61420c82613d70565b810181811067ffffffffffffffff8211171561422b5761422a6141d4565b5b80604052505050565b600061423e613bf9565b905061424a8282614203565b919050565b600067ffffffffffffffff82111561426a576142696141d4565b5b602082029050919050565b600080fd5b600061428d6142888461424f565b614234565b905080602084028301858111156142a7576142a6614275565b5b835b818110156142d057806142bc8882613eb2565b8452602084019350506020810190506142a9565b5050509392505050565b600082601f8301126142ef576142ee6141cf565b5b60646142fc84828561427a565b91505092915050565b6000610c80828403121561431c5761431b613c03565b5b600061432a848285016142da565b91505092915050565b600080fd5b600067ffffffffffffffff821115614353576143526141d4565b5b61435c82613d70565b9050602081019050919050565b82818337600083830152505050565b600061438b61438684614338565b614234565b9050828152602081018484840111156143a7576143a6614333565b5b6143b2848285614369565b509392505050565b600082601f8301126143cf576143ce6141cf565b5b81356143df848260208601614378565b91505092915050565b6000602082840312156143fe576143fd613c03565b5b600082013567ffffffffffffffff81111561441c5761441b613c08565b5b614428848285016143ba565b91505092915050565b6000806040838503121561444857614447613c03565b5b600061445685828601613eb2565b925050602061446785828601613cdf565b9150509250929050565b600067ffffffffffffffff82111561448c5761448b6141d4565b5b61449582613d70565b9050602081019050919050565b60006144b56144b084614471565b614234565b9050828152602081018484840111156144d1576144d0614333565b5b6144dc848285614369565b509392505050565b600082601f8301126144f9576144f86141cf565b5b81356145098482602086016144a2565b91505092915050565b6000806000806080858703121561452c5761452b613c03565b5b600061453a87828801613eb2565b945050602061454b87828801613eb2565b935050604061455c87828801613dfd565b925050606085013567ffffffffffffffff81111561457d5761457c613c08565b5b614589878288016144e4565b91505092959194509250565b600081519050919050565b600082825260208201905092915050565b6000819050602082019050919050565b6145ca81613f31565b82525050565b6145d981613f6f565b82525050565b6040820160008201516145f560008501826145c1565b50602082015161460860208501826145d0565b50505050565b600061461a83836145df565b60408301905092915050565b6000602082019050919050565b600061463e82614595565b61464881856145a0565b9350614653836145b1565b8060005b8381101561468457815161466b888261460e565b975061467683614626565b925050600181019050614657565b5085935050505092915050565b600060208201905081810360008301526146ab8184614633565b905092915050565b600080604083850312156146ca576146c9613c03565b5b60006146d885828601613eb2565b92505060206146e985828601613eb2565b9150509250929050565b7f4f776e61626c653a2063616c6c6572206973206e6f7420746865206f776e6572600082015250565b6000614729602083613d2c565b9150614734826146f3565b602082019050919050565b600060208201905081810360008301526147588161471c565b9050919050565b7f4e487b7100000000000000000000000000000000000000000000000000000000600052602260045260246000fd5b600060028204905060018216806147a657607f821691505b602082108114156147ba576147b961475f565b5b50919050565b7f4552433732313a20617070726f76656420717565727920666f72206e6f6e657860008201527f697374656e7420746f6b656e0000000000000000000000000000000000000000602082015250565b600061481c602c83613d2c565b9150614827826147c0565b604082019050919050565b6000602082019050818103600083015261484b8161480f565b9050919050565b7f4552433732313a20617070726f76616c20746f2063757272656e74206f776e6560008201527f7200000000000000000000000000000000000000000000000000000000000000602082015250565b60006148ae602183613d2c565b91506148b982614852565b604082019050919050565b600060208201905081810360008301526148dd816148a1565b9050919050565b7f4552433732313a20617070726f76652063616c6c6572206973206e6f74206f7760008201527f6e6572206e6f7220617070726f76656420666f7220616c6c0000000000000000602082015250565b6000614940603883613d2c565b915061494b826148e4565b604082019050919050565b6000602082019050818103600083015261496f81614933565b9050919050565b7f4e487b7100000000000000000000000000000000000000000000000000000000600052603260045260246000fd5b7f4552433732313a207472616e736665722063616c6c6572206973206e6f74206f60008201527f776e6572206e6f7220617070726f766564000000000000000000000000000000602082015250565b6000614a01603183613d2c565b9150614a0c826149a5565b604082019050919050565b60006020820190508181036000830152614a30816149f4565b9050919050565b7f4e487b7100000000000000000000000000000000000000000000000000000000600052601160045260246000fd5b6000614a7182613ddc565b9150614a7c83613ddc565b9250827fffffffffffffffffffffffffffffffffffffffffffffffffffffffffffffffff03821115614ab157614ab0614a37565b5b828201905092915050565b6000614ac782613ddc565b91507fffffffffffffffffffffffffffffffffffffffffffffffffffffffffffffffff821415614afa57614af9614a37565b5b600182019050919050565b6000614b1082613ddc565b9150614b1b83613ddc565b9250817fffffffffffffffffffffffffffffffffffffffffffffffffffffffffffffffff0483118215151615614b5457614b53614a37565b5b828202905092915050565b7f4e487b7100000000000000000000000000000000000000000000000000000000600052601260045260246000fd5b6000614b9982613ddc565b9150614ba483613ddc565b925082614bb457614bb3614b5f565b5b828204905092915050565b7f455243373231456e756d657261626c653a206f776e657220696e646578206f7560008201527f74206f6620626f756e6473000000000000000000000000000000000000000000602082015250565b6000614c1b602b83613d2c565b9150614c2682614bbf565b604082019050919050565b60006020820190508181036000830152614c4a81614c0e565b9050919050565b600081905092915050565b50565b6000614c6c600083614c51565b9150614c7782614c5c565b600082019050919050565b6000614c8d82614c5f565b9150819050919050565b7f455243373231456e756d657261626c653a20676c6f62616c20696e646578206f60008201527f7574206f6620626f756e64730000000000000000000000000000000000000000602082015250565b6000614cf3602c83613d2c565b9150614cfe82614c97565b604082019050919050565b60006020820190508181036000830152614d2281614ce6565b9050919050565b7f4552433732313a206f776e657220717565727920666f72206e6f6e657869737460008201527f656e7420746f6b656e0000000000000000000000000000000000000000000000602082015250565b6000614d85602983613d2c565b9150614d9082614d29565b604082019050919050565b60006020820190508181036000830152614db481614d78565b9050919050565b7f4552433732313a2062616c616e636520717565727920666f7220746865207a6560008201527f726f206164647265737300000000000000000000000000000000000000000000602082015250565b6000614e17602a83613d2c565b9150614e2282614dbb565b604082019050919050565b60006020820190508181036000830152614e4681614e0a565b9050919050565b7f4552433732313a20617070726f766520746f2063616c6c657200000000000000600082015250565b6000614e83601983613d2c565b9150614e8e82614e4d565b602082019050919050565b60006020820190508181036000830152614eb281614e76565b9050919050565b7f4552433732314d657461646174613a2055524920717565727920666f72206e6f60008201527f6e6578697374656e7420746f6b656e0000000000000000000000000000000000602082015250565b6000614f15602f83613d2c565b9150614f2082614eb9565b604082019050919050565b60006020820190508181036000830152614f4481614f08565b9050919050565b600081905092915050565b6000614f6182613d21565b614f6b8185614f4b565b9350614f7b818560208601613d3d565b80840191505092915050565b60008190508160005260206000209050919050565b60008154614fa98161478e565b614fb38186614f4b565b94506001821660008114614fce5760018114614fdf57615012565b60ff19831686528186019350615012565b614fe885614f87565b60005b8381101561500a57815481890152600182019150602081019050614feb565b838801955050505b50505092915050565b60006150278286614f56565b91506150338285614f56565b915061503f8284614f9c565b9150819050949350505050565b7f4f776e61626c653a206e6577206f776e657220697320746865207a65726f206160008201527f6464726573730000000000000000000000000000000000000000000000000000602082015250565b60006150a8602683613d2c565b91506150b38261504c565b604082019050919050565b600060208201905081810360008301526150d78161509b565b9050919050565b7f526563697069656e742073686f756c642062652070726573656e740000000000600082015250565b6000615114601b83613d2c565b915061511f826150de565b602082019050919050565b6000602082019050818103600083015261514381615107565b9050919050565b7f526f79616c74792076616c75652073686f756c6420626520706f736974697665600082015250565b6000615180602083613d2c565b915061518b8261514a565b602082019050919050565b600060208201905081810360008301526151af81615173565b9050919050565b7f526f79616c747920746f74616c2076616c75652073686f756c64206265203c2060008201527f3130303030000000000000000000000000000000000000000000000000000000602082015250565b6000615212602583613d2c565b915061521d826151b6565b604082019050919050565b6000602082019050818103600083015261524181615205565b9050919050565b7f4552433732313a206f70657261746f7220717565727920666f72206e6f6e657860008201527f697374656e7420746f6b656e0000000000000000000000000000000000000000602082015250565b60006152a4602c83613d2c565b91506152af82615248565b604082019050919050565b600060208201905081810360008301526152d381615297565b9050919050565b7f4552433732313a207472616e73666572206f6620746f6b656e2074686174206960008201527f73206e6f74206f776e0000000000000000000000000000000000000000000000602082015250565b6000615336602983613d2c565b9150615341826152da565b604082019050919050565b6000602082019050818103600083015261536581615329565b9050919050565b7f4552433732313a207472616e7366657220746f20746865207a65726f2061646460008201527f7265737300000000000000000000000000000000000000000000000000000000602082015250565b60006153c8602483613d2c565b91506153d38261536c565b604082019050919050565b600060208201905081810360008301526153f7816153bb565b9050919050565b600061540982613ddc565b915061541483613ddc565b92508282101561542757615426614a37565b5b828203905092915050565b7f4552433732313a207472616e7366657220746f206e6f6e20455243373231526560008201527f63656976657220696d706c656d656e7465720000000000000000000000000000602082015250565b600061548e603283613d2c565b915061549982615432565b604082019050919050565b600060208201905081810360008301526154bd81615481565b9050919050565b60006154cf82613ddc565b91506154da83613ddc565b9250826154ea576154e9614b5f565b5b828206905092915050565b600060408201905061550a6000830185613f07565b818103602083015261551c8184614633565b90509392505050565b600081519050919050565b600082825260208201905092915050565b600061554c82615525565b6155568185615530565b9350615566818560208601613d3d565b61556f81613d70565b840191505092915050565b600060808201905061558f6000830187613e71565b61559c6020830186613e71565b6155a96040830185613f07565b81810360608301526155bb8184615541565b905095945050505050565b6000815190506155d581613c39565b92915050565b6000602082840312156155f1576155f0613c03565b5b60006155ff848285016155c6565b91505092915050565b7f4e487b7100000000000000000000000000000000000000000000000000000000600052603160045260246000fd5b7f4552433732313a206d696e7420746f20746865207a65726f2061646472657373600082015250565b600061566d602083613d2c565b915061567882615637565b602082019050919050565b6000602082019050818103600083015261569c81615660565b9050919050565b7f4552433732313a20746f6b656e20616c7265616479206d696e74656400000000600082015250565b60006156d9601c83613d2c565b91506156e4826156a3565b602082019050919050565b60006020820190508181036000830152615708816156cc565b905091905056fea26469706673582212201070446fef35d87e49d6b69346754b7d09e7059d44753187a9c6668d56c94c1d64736f6c634300080b0033697066733a2f2f516d65734b70634a585936575362615372345071394451654d6234556f6e79724d7a656e62346e4a3864666f44562f",
  "immutableReferences": {},
  "source": "//SPDX-License-Identifier: MIT\n\npragma solidity ^0.8.0;\n\nimport \"./token/ERC721/extensions/ERC721Enumerable.sol\";\nimport \"./access/Ownable.sol\";\nimport \"./@rarible/royalties/contracts/Impl/RoyaltiesV2Impl.sol\";\nimport \"./@rarible/royalties/contracts/LibPart.sol\";\nimport \"./@rarible/royalties/contracts/LibRoyaltiesV2.sol\";\n\ncontract GoofyGolferrs is ERC721Enumerable, Ownable, RoyaltiesV2Impl{\n    using Strings for uint256;\n    string public baseURI;\n    uint public txFeeAmount;\n    string public baseExtension = \".json\";\n    uint256 public cost = 0.05 ether;\n    uint256 public presaleCost = 0.03 ether;\n    uint256 public maxSupply = 10000;\n    uint256 public maxMintAmount = 10;\n    bool public paused = false;\n    mapping(address => bool) public whitelisted;\n    mapping(address => bool) public presaleWallets;\n\n    bytes4 private constant _INTERFACE_ID_ERC2981 = 0x2a55205a;\n\n    constructor() ERC721(\"GoofyGolferrs\",\"GFYGLFERS\") {\n        setBaseURI(\"ipfs://QmesKpcJXY6WSbaSr4Pq9DQeMb4UonyrMzenb4nJ8dfoDV/\");\n        mint(msg.sender, 1);\n    }\n\n    // internal\n    function _baseURI() internal view virtual override returns (string memory) {\n        return baseURI;\n    }\n\n\n\n    // public\n    function mint(address _to, uint256 _mintAmount) public payable {\n        uint256 supply = totalSupply();\n        require(!paused);\n        require(_mintAmount > 0);\n        require(_mintAmount <= maxMintAmount);\n        require(supply + _mintAmount <= maxSupply);\n\n        if (msg.sender != owner()) {\n            if (whitelisted[msg.sender] != true) {\n                if (presaleWallets[msg.sender] != true) {\n                    //general public\n                    require(msg.value >= cost * _mintAmount);\n                } else {\n                    //presale\n                    require(msg.value >= presaleCost * _mintAmount);\n                }\n            }\n        }\n\n        for (uint256 i = 1; i <= _mintAmount; i++) {\n            _safeMint(_to, supply + i);\n        }\n    }\n\n    function walletOfOwner(address _owner)\n        public\n        view\n        returns (uint256[] memory)\n    {\n        uint256 ownerTokenCount = balanceOf(_owner);\n        uint256[] memory tokenIds = new uint256[](ownerTokenCount);\n        for (uint256 i; i < ownerTokenCount; i++) {\n            tokenIds[i] = tokenOfOwnerByIndex(_owner, i);\n        }\n        return tokenIds;\n    }\n\n    function tokenURI(uint256 tokenId)\n        public\n        view\n        virtual\n        override\n        returns (string memory)\n    {\n        require(\n            _exists(tokenId),\n            \"ERC721Metadata: URI query for nonexistent token\"\n        );\n\n        string memory currentBaseURI = _baseURI();\n        return\n            bytes(currentBaseURI).length > 0\n                ? string(\n                    abi.encodePacked(\n                        currentBaseURI,\n                        tokenId.toString(),\n                        baseExtension\n                    )\n                )\n                : \"\";\n    }\n\n    //only owner\n    function setCost(uint256 _newCost) public onlyOwner {\n        cost = _newCost;\n    }\n\n    function setPresaleCost(uint256 _newCost) public onlyOwner {\n        presaleCost = _newCost;\n    }\n\n    function setmaxMintAmount(uint256 _newmaxMintAmount) public onlyOwner {\n        maxMintAmount = _newmaxMintAmount;\n    }\n\n    function setBaseURI(string memory _newBaseURI) public onlyOwner {\n        baseURI = _newBaseURI;\n    }\n\n    function setBaseExtension(string memory _newBaseExtension)\n        public\n        onlyOwner\n    {\n        baseExtension = _newBaseExtension;\n    }\n\n    function pause(bool _state) public onlyOwner {\n        paused = _state;\n    }\n\n    function whitelistUser(address _user) public onlyOwner {\n        whitelisted[_user] = true;\n    }\n\n    function removeWhitelistUser(address _user) public onlyOwner {\n        whitelisted[_user] = false;\n    }\n\n    function addPresaleUser(address _user) public onlyOwner {\n        presaleWallets[_user] = true;\n    }\n\n    function add100PresaleUsers(address[100] memory _users) public onlyOwner {\n        for (uint256 i = 0; i < 2; i++) {\n            presaleWallets[_users[i]] = true;\n        }\n    }\n\n    function removePresaleUser(address _user) public onlyOwner {\n        presaleWallets[_user] = false;\n    }\n\n    function withdraw() public payable onlyOwner {\n        (bool success, ) = payable(msg.sender).call{\n            value: address(this).balance\n        }(\"\");\n        require(success);\n    }\n\n    function setRoyalties(uint _tokenId, address payable _royaltiesRecipientAddress, uint96 _percentageBasesPoints) public onlyOwner{\n            LibPart.Part[] memory _royalties = new LibPart.Part[](1);\n            _royalties[0].value = _percentageBasesPoints;\n            _royalties[0].account = _royaltiesRecipientAddress;\n            _saveRoyalties(_tokenId, _royalties);\n    }\n\n    function supportsInterface(bytes4 interfaceId) public view virtual override(ERC721Enumerable) returns (bool){\n        if(interfaceId == LibRoyaltiesV2._INTERFACE_ID_ROYALTIES){\n            return true;\n        }\n\n        if(interfaceId == _INTERFACE_ID_ERC2981){\n            return true;\n        }\n\n        return super.supportsInterface(interfaceId);\n    }\n\n\n}\n",
  "sourcePath": "/home/hamaad/NFT/contracts/GoofyGolferrs.sol",
  "compiler": {
    "name": "solc",
    "version": "0.8.11+commit.d7f03943.Emscripten.clang"
  },
  "schemaVersion": "3.4.5",
  "updatedAt": "2022-03-31T11:06:56.883Z",
  "networkType": "ethereum",
  "devdoc": {
    "kind": "dev",
    "methods": {
      "approve(address,uint256)": {
        "details": "See {IERC721-approve}."
      },
      "balanceOf(address)": {
        "details": "See {IERC721-balanceOf}."
      },
      "getApproved(uint256)": {
        "details": "See {IERC721-getApproved}."
      },
      "isApprovedForAll(address,address)": {
        "details": "See {IERC721-isApprovedForAll}."
      },
      "name()": {
        "details": "See {IERC721Metadata-name}."
      },
      "owner()": {
        "details": "Returns the address of the current owner."
      },
      "ownerOf(uint256)": {
        "details": "See {IERC721-ownerOf}."
      },
      "renounceOwnership()": {
        "details": "Leaves the contract without owner. It will not be possible to call `onlyOwner` functions anymore. Can only be called by the current owner. NOTE: Renouncing ownership will leave the contract without an owner, thereby removing any functionality that is only available to the owner."
      },
      "safeTransferFrom(address,address,uint256)": {
        "details": "See {IERC721-safeTransferFrom}."
      },
      "safeTransferFrom(address,address,uint256,bytes)": {
        "details": "See {IERC721-safeTransferFrom}."
      },
      "setApprovalForAll(address,bool)": {
        "details": "See {IERC721-setApprovalForAll}."
      },
      "supportsInterface(bytes4)": {
        "details": "See {IERC165-supportsInterface}."
      },
      "symbol()": {
        "details": "See {IERC721Metadata-symbol}."
      },
      "tokenByIndex(uint256)": {
        "details": "See {IERC721Enumerable-tokenByIndex}."
      },
      "tokenOfOwnerByIndex(address,uint256)": {
        "details": "See {IERC721Enumerable-tokenOfOwnerByIndex}."
      },
      "tokenURI(uint256)": {
        "details": "See {IERC721Metadata-tokenURI}."
      },
      "totalSupply()": {
        "details": "See {IERC721Enumerable-totalSupply}."
      },
      "transferFrom(address,address,uint256)": {
        "details": "See {IERC721-transferFrom}."
      },
      "transferOwnership(address)": {
        "details": "Transfers ownership of the contract to a new account (`newOwner`). Can only be called by the current owner."
      }
    },
    "version": 1
  },
  "userdoc": {
    "kind": "user",
    "methods": {},
    "version": 1
  }
}