{
  "contractName": "RoyaltiesV2Impl",
  "abi": [
    {
      "anonymous": false,
      "inputs": [
        {
          "indexed": false,
          "internalType": "uint256",
          "name": "tokenId",
          "type": "uint256"
        },
        {
          "components": [
            {
              "internalType": "address payable",
              "name": "account",
              "type": "address"
            },
            {
              "internalType": "uint96",
              "name": "value",
              "type": "uint96"
            }
          ],
          "indexed": false,
          "internalType": "struct LibPart.Part[]",
          "name": "royalties",
          "type": "tuple[]"
        }
      ],
      "name": "RoyaltiesSet",
      "type": "event"
    },
    {
      "inputs": [
        {
          "internalType": "uint256",
          "name": "id",
          "type": "uint256"
        }
      ],
      "name": "getRaribleV2Royalties",
      "outputs": [
        {
          "components": [
            {
              "internalType": "address payable",
              "name": "account",
              "type": "address"
            },
            {
              "internalType": "uint96",
              "name": "value",
              "type": "uint96"
            }
          ],
          "internalType": "struct LibPart.Part[]",
          "name": "",
          "type": "tuple[]"
        }
      ],
      "stateMutability": "view",
      "type": "function"
    },
    {
      "inputs": [
        {
          "internalType": "uint256",
          "name": "id",
          "type": "uint256"
        },
        {
          "internalType": "uint256",
          "name": "_salePrice",
          "type": "uint256"
        }
      ],
      "name": "royaltyInfo",
      "outputs": [
        {
          "internalType": "address",
          "name": "receiver",
          "type": "address"
        },
        {
          "internalType": "uint256",
          "name": "royaltyAmount",
          "type": "uint256"
        }
      ],
      "stateMutability": "view",
      "type": "function"
    }
  ],
  "bytecode": "0x608060405234801561001057600080fd5b506107c3806100206000396000f3fe608060405234801561001057600080fd5b50600436106100365760003560e01c80632a55205a1461003b578063cad96cca1461006c575b600080fd5b610055600480360381019061005091906103a8565b61009c565b604051610063929190610438565b60405180910390f35b61008660048036038101906100819190610461565b61026c565b60405161009391906105b4565b60405180910390f35b60008060008060008681526020019081526020016000208054905014156100ca576000915060009050610265565b6000806000868152602001908152602001600020805480602002602001604051908101604052809291908181526020016000905b828210156101c0578382906000526020600020016040518060400160405290816000820160009054906101000a900473ffffffffffffffffffffffffffffffffffffffff1673ffffffffffffffffffffffffffffffffffffffff1673ffffffffffffffffffffffffffffffffffffffff1681526020016000820160149054906101000a90046bffffffffffffffffffffffff166bffffffffffffffffffffffff166bffffffffffffffffffffffff1681525050815260200190600101906100fe565b505050509050806000815181106101da576101d96105d6565b5b6020026020010151600001519250600080600090505b82518110156102465782818151811061020c5761020b6105d6565b5b6020026020010151602001516bffffffffffffffffffffffff16826102319190610634565b9150808061023e9061068a565b9150506101f0565b50612710858261025691906106d3565b610260919061075c565b925050505b9250929050565b6060600080838152602001908152602001600020805480602002602001604051908101604052809291908181526020016000905b82821015610362578382906000526020600020016040518060400160405290816000820160009054906101000a900473ffffffffffffffffffffffffffffffffffffffff1673ffffffffffffffffffffffffffffffffffffffff1673ffffffffffffffffffffffffffffffffffffffff1681526020016000820160149054906101000a90046bffffffffffffffffffffffff166bffffffffffffffffffffffff166bffffffffffffffffffffffff1681525050815260200190600101906102a0565b505050509050919050565b600080fd5b6000819050919050565b61038581610372565b811461039057600080fd5b50565b6000813590506103a28161037c565b92915050565b600080604083850312156103bf576103be61036d565b5b60006103cd85828601610393565b92505060206103de85828601610393565b9150509250929050565b600073ffffffffffffffffffffffffffffffffffffffff82169050919050565b6000610413826103e8565b9050919050565b61042381610408565b82525050565b61043281610372565b82525050565b600060408201905061044d600083018561041a565b61045a6020830184610429565b9392505050565b6000602082840312156104775761047661036d565b5b600061048584828501610393565b91505092915050565b600081519050919050565b600082825260208201905092915050565b6000819050602082019050919050565b60006104c5826103e8565b9050919050565b6104d5816104ba565b82525050565b60006bffffffffffffffffffffffff82169050919050565b6104fc816104db565b82525050565b60408201600082015161051860008501826104cc565b50602082015161052b60208501826104f3565b50505050565b600061053d8383610502565b60408301905092915050565b6000602082019050919050565b60006105618261048e565b61056b8185610499565b9350610576836104aa565b8060005b838110156105a757815161058e8882610531565b975061059983610549565b92505060018101905061057a565b5085935050505092915050565b600060208201905081810360008301526105ce8184610556565b905092915050565b7f4e487b7100000000000000000000000000000000000000000000000000000000600052603260045260246000fd5b7f4e487b7100000000000000000000000000000000000000000000000000000000600052601160045260246000fd5b600061063f82610372565b915061064a83610372565b9250827fffffffffffffffffffffffffffffffffffffffffffffffffffffffffffffffff0382111561067f5761067e610605565b5b828201905092915050565b600061069582610372565b91507fffffffffffffffffffffffffffffffffffffffffffffffffffffffffffffffff8214156106c8576106c7610605565b5b600182019050919050565b60006106de82610372565b91506106e983610372565b9250817fffffffffffffffffffffffffffffffffffffffffffffffffffffffffffffffff048311821515161561072257610721610605565b5b828202905092915050565b7f4e487b7100000000000000000000000000000000000000000000000000000000600052601260045260246000fd5b600061076782610372565b915061077283610372565b9250826107825761078161072d565b5b82820490509291505056fea26469706673582212202494c1c468c6138cb853c573550d8baedc03d2fee12fd7ac24aa0392e6cdd0f064736f6c634300080b0033",
  "immutableReferences": {},
  "source": "// SPDX-License-Identifier: MIT\n\npragma solidity ^0.8.0;\n\nimport \"./AbstractRoyalties.sol\";\nimport \"../RoyaltiesV2.sol\";\nimport \"../IERC2981.sol\";\nimport \"../LibRoyalties2981.sol\";\n\ncontract RoyaltiesV2Impl is AbstractRoyalties, RoyaltiesV2 {\n\n    function getRaribleV2Royalties(uint256 id) override external view returns (LibPart.Part[] memory) {\n        return royalties[id];\n    }\n\n    function _onRoyaltiesSet(uint256 id, LibPart.Part[] memory _royalties) override internal {\n        emit RoyaltiesSet(id, _royalties);\n    }\n\n    /*\n    *Token (ERC721, ERC721Minimal, ERC721MinimalMeta, ERC1155 ) can have a number of different royalties beneficiaries\n    *calculate sum all royalties, but royalties beneficiary will be only one royalties[0].account, according to rules of IERC2981\n    */\n    function royaltyInfo(uint256 id, uint256 _salePrice) external view returns (address receiver, uint256 royaltyAmount) {\n        if (royalties[id].length == 0) {\n            receiver = address(0);\n            royaltyAmount = 0;\n            return(receiver, royaltyAmount);\n        }\n        LibPart.Part[] memory _royalties = royalties[id];\n        receiver = _royalties[0].account;\n        uint percent;\n        for (uint i = 0; i < _royalties.length; i++) {\n            percent += _royalties[i].value;\n        }\n        //don`t need require(percent < 10000, \"Token royalty > 100%\"); here, because check later in calculateRoyalties\n        royaltyAmount = percent * _salePrice / 10000;\n    }\n}",
  "sourcePath": "/home/hamaad/NFT/contracts/@rarible/royalties/contracts/Impl/RoyaltiesV2Impl.sol",
  "compiler": {
    "name": "solc",
    "version": "0.8.11+commit.d7f03943.Emscripten.clang"
  },
  "schemaVersion": "3.4.5",
  "updatedAt": "2022-03-31T12:33:02.544Z",
  "devdoc": {
    "kind": "dev",
    "methods": {},
    "version": 1
  },
  "userdoc": {
    "kind": "user",
    "methods": {},
    "version": 1
  }
}