{
  "contractName": "TheStripesNFT",
  "abi": [
    {
      "inputs": [],
      "stateMutability": "nonpayable",
      "type": "constructor"
    },
    {
      "anonymous": false,
      "inputs": [
        {
          "indexed": true,
          "internalType": "address",
          "name": "owner",
          "type": "address"
        },
        {
          "indexed": true,
          "internalType": "address",
          "name": "approved",
          "type": "address"
        },
        {
          "indexed": true,
          "internalType": "uint256",
          "name": "tokenId",
          "type": "uint256"
        }
      ],
      "name": "Approval",
      "type": "event"
    },
    {
      "anonymous": false,
      "inputs": [
        {
          "indexed": true,
          "internalType": "address",
          "name": "owner",
          "type": "address"
        },
        {
          "indexed": true,
          "internalType": "address",
          "name": "operator",
          "type": "address"
        },
        {
          "indexed": false,
          "internalType": "bool",
          "name": "approved",
          "type": "bool"
        }
      ],
      "name": "ApprovalForAll",
      "type": "event"
    },
    {
      "anonymous": false,
      "inputs": [
        {
          "indexed": true,
          "internalType": "address",
          "name": "previousOwner",
          "type": "address"
        },
        {
          "indexed": true,
          "internalType": "address",
          "name": "newOwner",
          "type": "address"
        }
      ],
      "name": "OwnershipTransferred",
      "type": "event"
    },
    {
      "anonymous": false,
      "inputs": [
        {
          "indexed": true,
          "internalType": "address",
          "name": "from",
          "type": "address"
        },
        {
          "indexed": true,
          "internalType": "address",
          "name": "to",
          "type": "address"
        },
        {
          "indexed": true,
          "internalType": "uint256",
          "name": "tokenId",
          "type": "uint256"
        }
      ],
      "name": "Transfer",
      "type": "event"
    },
    {
      "inputs": [
        {
          "internalType": "address",
          "name": "to",
          "type": "address"
        },
        {
          "internalType": "uint256",
          "name": "tokenId",
          "type": "uint256"
        }
      ],
      "name": "approve",
      "outputs": [],
      "stateMutability": "nonpayable",
      "type": "function"
    },
    {
      "inputs": [
        {
          "internalType": "address",
          "name": "owner",
          "type": "address"
        }
      ],
      "name": "balanceOf",
      "outputs": [
        {
          "internalType": "uint256",
          "name": "",
          "type": "uint256"
        }
      ],
      "stateMutability": "view",
      "type": "function"
    },
    {
      "inputs": [],
      "name": "baseExtension",
      "outputs": [
        {
          "internalType": "string",
          "name": "",
          "type": "string"
        }
      ],
      "stateMutability": "view",
      "type": "function"
    },
    {
      "inputs": [],
      "name": "baseURI",
      "outputs": [
        {
          "internalType": "string",
          "name": "",
          "type": "string"
        }
      ],
      "stateMutability": "view",
      "type": "function"
    },
    {
      "inputs": [],
      "name": "cost",
      "outputs": [
        {
          "internalType": "uint256",
          "name": "",
          "type": "uint256"
        }
      ],
      "stateMutability": "view",
      "type": "function"
    },
    {
      "inputs": [
        {
          "internalType": "uint256",
          "name": "tokenId",
          "type": "uint256"
        }
      ],
      "name": "getApproved",
      "outputs": [
        {
          "internalType": "address",
          "name": "",
          "type": "address"
        }
      ],
      "stateMutability": "view",
      "type": "function"
    },
    {
      "inputs": [
        {
          "internalType": "address",
          "name": "owner",
          "type": "address"
        },
        {
          "internalType": "address",
          "name": "operator",
          "type": "address"
        }
      ],
      "name": "isApprovedForAll",
      "outputs": [
        {
          "internalType": "bool",
          "name": "",
          "type": "bool"
        }
      ],
      "stateMutability": "view",
      "type": "function"
    },
    {
      "inputs": [],
      "name": "maxMintAmount",
      "outputs": [
        {
          "internalType": "uint256",
          "name": "",
          "type": "uint256"
        }
      ],
      "stateMutability": "view",
      "type": "function"
    },
    {
      "inputs": [],
      "name": "maxSupply",
      "outputs": [
        {
          "internalType": "uint256",
          "name": "",
          "type": "uint256"
        }
      ],
      "stateMutability": "view",
      "type": "function"
    },
    {
      "inputs": [],
      "name": "name",
      "outputs": [
        {
          "internalType": "string",
          "name": "",
          "type": "string"
        }
      ],
      "stateMutability": "view",
      "type": "function"
    },
    {
      "inputs": [],
      "name": "owner",
      "outputs": [
        {
          "internalType": "address",
          "name": "",
          "type": "address"
        }
      ],
      "stateMutability": "view",
      "type": "function"
    },
    {
      "inputs": [
        {
          "internalType": "uint256",
          "name": "tokenId",
          "type": "uint256"
        }
      ],
      "name": "ownerOf",
      "outputs": [
        {
          "internalType": "address",
          "name": "",
          "type": "address"
        }
      ],
      "stateMutability": "view",
      "type": "function"
    },
    {
      "inputs": [],
      "name": "paused",
      "outputs": [
        {
          "internalType": "bool",
          "name": "",
          "type": "bool"
        }
      ],
      "stateMutability": "view",
      "type": "function"
    },
    {
      "inputs": [],
      "name": "presaleCost",
      "outputs": [
        {
          "internalType": "uint256",
          "name": "",
          "type": "uint256"
        }
      ],
      "stateMutability": "view",
      "type": "function"
    },
    {
      "inputs": [
        {
          "internalType": "address",
          "name": "",
          "type": "address"
        }
      ],
      "name": "presaleWallets",
      "outputs": [
        {
          "internalType": "bool",
          "name": "",
          "type": "bool"
        }
      ],
      "stateMutability": "view",
      "type": "function"
    },
    {
      "inputs": [],
      "name": "renounceOwnership",
      "outputs": [],
      "stateMutability": "nonpayable",
      "type": "function"
    },
    {
      "inputs": [
        {
          "internalType": "address",
          "name": "from",
          "type": "address"
        },
        {
          "internalType": "address",
          "name": "to",
          "type": "address"
        },
        {
          "internalType": "uint256",
          "name": "tokenId",
          "type": "uint256"
        }
      ],
      "name": "safeTransferFrom",
      "outputs": [],
      "stateMutability": "nonpayable",
      "type": "function"
    },
    {
      "inputs": [
        {
          "internalType": "address",
          "name": "from",
          "type": "address"
        },
        {
          "internalType": "address",
          "name": "to",
          "type": "address"
        },
        {
          "internalType": "uint256",
          "name": "tokenId",
          "type": "uint256"
        },
        {
          "internalType": "bytes",
          "name": "_data",
          "type": "bytes"
        }
      ],
      "name": "safeTransferFrom",
      "outputs": [],
      "stateMutability": "nonpayable",
      "type": "function"
    },
    {
      "inputs": [
        {
          "internalType": "address",
          "name": "operator",
          "type": "address"
        },
        {
          "internalType": "bool",
          "name": "approved",
          "type": "bool"
        }
      ],
      "name": "setApprovalForAll",
      "outputs": [],
      "stateMutability": "nonpayable",
      "type": "function"
    },
    {
      "inputs": [
        {
          "internalType": "bytes4",
          "name": "interfaceId",
          "type": "bytes4"
        }
      ],
      "name": "supportsInterface",
      "outputs": [
        {
          "internalType": "bool",
          "name": "",
          "type": "bool"
        }
      ],
      "stateMutability": "view",
      "type": "function"
    },
    {
      "inputs": [],
      "name": "symbol",
      "outputs": [
        {
          "internalType": "string",
          "name": "",
          "type": "string"
        }
      ],
      "stateMutability": "view",
      "type": "function"
    },
    {
      "inputs": [
        {
          "internalType": "uint256",
          "name": "index",
          "type": "uint256"
        }
      ],
      "name": "tokenByIndex",
      "outputs": [
        {
          "internalType": "uint256",
          "name": "",
          "type": "uint256"
        }
      ],
      "stateMutability": "view",
      "type": "function"
    },
    {
      "inputs": [
        {
          "internalType": "address",
          "name": "owner",
          "type": "address"
        },
        {
          "internalType": "uint256",
          "name": "index",
          "type": "uint256"
        }
      ],
      "name": "tokenOfOwnerByIndex",
      "outputs": [
        {
          "internalType": "uint256",
          "name": "",
          "type": "uint256"
        }
      ],
      "stateMutability": "view",
      "type": "function"
    },
    {
      "inputs": [],
      "name": "totalSupply",
      "outputs": [
        {
          "internalType": "uint256",
          "name": "",
          "type": "uint256"
        }
      ],
      "stateMutability": "view",
      "type": "function"
    },
    {
      "inputs": [
        {
          "internalType": "address",
          "name": "from",
          "type": "address"
        },
        {
          "internalType": "address",
          "name": "to",
          "type": "address"
        },
        {
          "internalType": "uint256",
          "name": "tokenId",
          "type": "uint256"
        }
      ],
      "name": "transferFrom",
      "outputs": [],
      "stateMutability": "nonpayable",
      "type": "function"
    },
    {
      "inputs": [
        {
          "internalType": "address",
          "name": "newOwner",
          "type": "address"
        }
      ],
      "name": "transferOwnership",
      "outputs": [],
      "stateMutability": "nonpayable",
      "type": "function"
    },
    {
      "inputs": [
        {
          "internalType": "address",
          "name": "",
          "type": "address"
        }
      ],
      "name": "whitelisted",
      "outputs": [
        {
          "internalType": "bool",
          "name": "",
          "type": "bool"
        }
      ],
      "stateMutability": "view",
      "type": "function"
    },
    {
      "inputs": [
        {
          "internalType": "address",
          "name": "_to",
          "type": "address"
        },
        {
          "internalType": "uint256",
          "name": "_mintAmount",
          "type": "uint256"
        }
      ],
      "name": "mint",
      "outputs": [],
      "stateMutability": "payable",
      "type": "function"
    },
    {
      "inputs": [
        {
          "internalType": "address",
          "name": "_owner",
          "type": "address"
        }
      ],
      "name": "walletOfOwner",
      "outputs": [
        {
          "internalType": "uint256[]",
          "name": "",
          "type": "uint256[]"
        }
      ],
      "stateMutability": "view",
      "type": "function"
    },
    {
      "inputs": [
        {
          "internalType": "uint256",
          "name": "tokenId",
          "type": "uint256"
        }
      ],
      "name": "tokenURI",
      "outputs": [
        {
          "internalType": "string",
          "name": "",
          "type": "string"
        }
      ],
      "stateMutability": "view",
      "type": "function"
    },
    {
      "inputs": [
        {
          "internalType": "uint256",
          "name": "_newCost",
          "type": "uint256"
        }
      ],
      "name": "setCost",
      "outputs": [],
      "stateMutability": "nonpayable",
      "type": "function"
    },
    {
      "inputs": [
        {
          "internalType": "uint256",
          "name": "_newCost",
          "type": "uint256"
        }
      ],
      "name": "setPresaleCost",
      "outputs": [],
      "stateMutability": "nonpayable",
      "type": "function"
    },
    {
      "inputs": [
        {
          "internalType": "uint256",
          "name": "_newmaxMintAmount",
          "type": "uint256"
        }
      ],
      "name": "setmaxMintAmount",
      "outputs": [],
      "stateMutability": "nonpayable",
      "type": "function"
    },
    {
      "inputs": [
        {
          "internalType": "string",
          "name": "_newBaseURI",
          "type": "string"
        }
      ],
      "name": "setBaseURI",
      "outputs": [],
      "stateMutability": "nonpayable",
      "type": "function"
    },
    {
      "inputs": [
        {
          "internalType": "string",
          "name": "_newBaseExtension",
          "type": "string"
        }
      ],
      "name": "setBaseExtension",
      "outputs": [],
      "stateMutability": "nonpayable",
      "type": "function"
    },
    {
      "inputs": [
        {
          "internalType": "bool",
          "name": "_state",
          "type": "bool"
        }
      ],
      "name": "pause",
      "outputs": [],
      "stateMutability": "nonpayable",
      "type": "function"
    },
    {
      "inputs": [
        {
          "internalType": "address",
          "name": "_user",
          "type": "address"
        }
      ],
      "name": "whitelistUser",
      "outputs": [],
      "stateMutability": "nonpayable",
      "type": "function"
    },
    {
      "inputs": [
        {
          "internalType": "address",
          "name": "_user",
          "type": "address"
        }
      ],
      "name": "removeWhitelistUser",
      "outputs": [],
      "stateMutability": "nonpayable",
      "type": "function"
    },
    {
      "inputs": [
        {
          "internalType": "address",
          "name": "_user",
          "type": "address"
        }
      ],
      "name": "addPresaleUser",
      "outputs": [],
      "stateMutability": "nonpayable",
      "type": "function"
    },
    {
      "inputs": [
        {
          "internalType": "address[100]",
          "name": "_users",
          "type": "address[100]"
        }
      ],
      "name": "add100PresaleUsers",
      "outputs": [],
      "stateMutability": "nonpayable",
      "type": "function"
    },
    {
      "inputs": [
        {
          "internalType": "address",
          "name": "_user",
          "type": "address"
        }
      ],
      "name": "removePresaleUser",
      "outputs": [],
      "stateMutability": "nonpayable",
      "type": "function"
    },
    {
      "inputs": [],
      "name": "withdraw",
      "outputs": [],
      "stateMutability": "payable",
      "type": "function"
    }
  ],
  "bytecode": "0x60806040526040518060400160405280600581526020017f2e6a736f6e000000000000000000000000000000000000000000000000000000815250600c90805190602001906200005192919062000f13565b5066b1a2bc2ec50000600d55666a94d74f430000600e55612710600f55600a6010556000601160006101000a81548160ff0219169083151502179055503480156200009b57600080fd5b506040518060400160405280600b81526020017f476f6f6679476f6c6672730000000000000000000000000000000000000000008152506040518060400160405280600881526020017f474659474c46525300000000000000000000000000000000000000000000000081525081600090805190602001906200012092919062000f13565b5080600190805190602001906200013992919062000f13565b5050506200015c620001506200019f60201b60201c565b620001a760201b60201c565b62000186604051806060016040528060368152602001620060d1603691396200026d60201b60201c565b6200019933600a6200031860201b60201c565b6200167f565b600033905090565b6000600a60009054906101000a900473ffffffffffffffffffffffffffffffffffffffff16905081600a60006101000a81548173ffffffffffffffffffffffffffffffffffffffff021916908373ffffffffffffffffffffffffffffffffffffffff1602179055508173ffffffffffffffffffffffffffffffffffffffff168173ffffffffffffffffffffffffffffffffffffffff167f8be0079c531659141344cd1fd0a4f28419497f9722a3daafe3b4186f6b6457e060405160405180910390a35050565b6200027d6200019f60201b60201c565b73ffffffffffffffffffffffffffffffffffffffff16620002a36200050460201b60201c565b73ffffffffffffffffffffffffffffffffffffffff1614620002fc576040517f08c379a0000000000000000000000000000000000000000000000000000000008152600401620002f39062001024565b60405180910390fd5b80600b90805190602001906200031492919062000f13565b5050565b60006200032a6200052e60201b60201c565b9050601160009054906101000a900460ff16156200034757600080fd5b600082116200035557600080fd5b6010548211156200036557600080fd5b600f5482826200037691906200107f565b11156200038257600080fd5b620003926200050460201b60201c565b73ffffffffffffffffffffffffffffffffffffffff163373ffffffffffffffffffffffffffffffffffffffff1614620004ba5760011515601260003373ffffffffffffffffffffffffffffffffffffffff1673ffffffffffffffffffffffffffffffffffffffff16815260200190815260200160002060009054906101000a900460ff16151514620004b95760011515601360003373ffffffffffffffffffffffffffffffffffffffff1673ffffffffffffffffffffffffffffffffffffffff16815260200190815260200160002060009054906101000a900460ff161515146200049a5781600d54620004879190620010dc565b3410156200049457600080fd5b620004b8565b81600e54620004aa9190620010dc565b341015620004b757600080fd5b5b5b5b6000600190505b828111620004fe57620004e8848284620004dc91906200107f565b6200053b60201b60201c565b8080620004f5906200113d565b915050620004c1565b50505050565b6000600a60009054906101000a900473ffffffffffffffffffffffffffffffffffffffff16905090565b6000600880549050905090565b6200055d8282604051806020016040528060008152506200056160201b60201c565b5050565b620005738383620005cf60201b60201c565b620005886000848484620007b560201b60201c565b620005ca576040517f08c379a0000000000000000000000000000000000000000000000000000000008152600401620005c19062001201565b60405180910390fd5b505050565b600073ffffffffffffffffffffffffffffffffffffffff168273ffffffffffffffffffffffffffffffffffffffff16141562000642576040517f08c379a0000000000000000000000000000000000000000000000000000000008152600401620006399062001273565b60405180910390fd5b62000653816200095f60201b60201c565b1562000696576040517f08c379a00000000000000000000000000000000000000000000000000000000081526004016200068d90620012e5565b60405180910390fd5b620006aa60008383620009cb60201b60201c565b6001600360008473ffffffffffffffffffffffffffffffffffffffff1673ffffffffffffffffffffffffffffffffffffffff1681526020019081526020016000206000828254620006fc91906200107f565b92505081905550816002600083815260200190815260200160002060006101000a81548173ffffffffffffffffffffffffffffffffffffffff021916908373ffffffffffffffffffffffffffffffffffffffff160217905550808273ffffffffffffffffffffffffffffffffffffffff16600073ffffffffffffffffffffffffffffffffffffffff167fddf252ad1be2c89b69c2b068fc378daa952ba7f163c4a11628f55a4df523b3ef60405160405180910390a45050565b6000620007e38473ffffffffffffffffffffffffffffffffffffffff1662000b1260201b620021801760201c565b1562000952578373ffffffffffffffffffffffffffffffffffffffff1663150b7a02620008156200019f60201b60201c565b8786866040518563ffffffff1660e01b815260040162000839949392919062001401565b6020604051808303816000875af19250505080156200087857506040513d601f19601f82011682018060405250810190620008759190620014b7565b60015b62000901573d8060008114620008ab576040519150601f19603f3d011682016040523d82523d6000602084013e620008b0565b606091505b50600081511415620008f9576040517f08c379a0000000000000000000000000000000000000000000000000000000008152600401620008f09062001201565b60405180910390fd5b805181602001fd5b63150b7a0260e01b7bffffffffffffffffffffffffffffffffffffffffffffffffffffffff1916817bffffffffffffffffffffffffffffffffffffffffffffffffffffffff19161491505062000957565b600190505b949350505050565b60008073ffffffffffffffffffffffffffffffffffffffff166002600084815260200190815260200160002060009054906101000a900473ffffffffffffffffffffffffffffffffffffffff1673ffffffffffffffffffffffffffffffffffffffff1614159050919050565b620009e383838362000b2560201b620021931760201c565b600073ffffffffffffffffffffffffffffffffffffffff168373ffffffffffffffffffffffffffffffffffffffff16141562000a305762000a2a8162000b2a60201b60201c565b62000a78565b8173ffffffffffffffffffffffffffffffffffffffff168373ffffffffffffffffffffffffffffffffffffffff161462000a775762000a76838262000b7360201b60201c565b5b5b600073ffffffffffffffffffffffffffffffffffffffff168273ffffffffffffffffffffffffffffffffffffffff16141562000ac55762000abf8162000cf060201b60201c565b62000b0d565b8273ffffffffffffffffffffffffffffffffffffffff168273ffffffffffffffffffffffffffffffffffffffff161462000b0c5762000b0b828262000dcc60201b60201c565b5b5b505050565b600080823b905060008111915050919050565b505050565b6008805490506009600083815260200190815260200160002081905550600881908060018154018082558091505060019003906000526020600020016000909190919091505550565b6000600162000b8d8462000e5860201b620017671760201c565b62000b999190620014e9565b905060006007600084815260200190815260200160002054905081811462000c7f576000600660008673ffffffffffffffffffffffffffffffffffffffff1673ffffffffffffffffffffffffffffffffffffffff168152602001908152602001600020600084815260200190815260200160002054905080600660008773ffffffffffffffffffffffffffffffffffffffff1673ffffffffffffffffffffffffffffffffffffffff168152602001908152602001600020600084815260200190815260200160002081905550816007600083815260200190815260200160002081905550505b6007600084815260200190815260200160002060009055600660008573ffffffffffffffffffffffffffffffffffffffff1673ffffffffffffffffffffffffffffffffffffffff16815260200190815260200160002060008381526020019081526020016000206000905550505050565b6000600160088054905062000d069190620014e9565b905060006009600084815260200190815260200160002054905060006008838154811062000d395762000d3862001524565b5b90600052602060002001549050806008838154811062000d5e5762000d5d62001524565b5b90600052602060002001819055508160096000838152602001908152602001600020819055506009600085815260200190815260200160002060009055600880548062000db05762000daf62001553565b5b6001900381819060005260206000200160009055905550505050565b600062000de48362000e5860201b620017671760201c565b905081600660008573ffffffffffffffffffffffffffffffffffffffff1673ffffffffffffffffffffffffffffffffffffffff168152602001908152602001600020600083815260200190815260200160002081905550806007600084815260200190815260200160002081905550505050565b60008073ffffffffffffffffffffffffffffffffffffffff168273ffffffffffffffffffffffffffffffffffffffff16141562000ecc576040517f08c379a000000000000000000000000000000000000000000000000000000000815260040162000ec390620015f8565b60405180910390fd5b600360008373ffffffffffffffffffffffffffffffffffffffff1673ffffffffffffffffffffffffffffffffffffffff168152602001908152602001600020549050919050565b82805462000f219062001649565b90600052602060002090601f01602090048101928262000f45576000855562000f91565b82601f1062000f6057805160ff191683800117855562000f91565b8280016001018555821562000f91579182015b8281111562000f9057825182559160200191906001019062000f73565b5b50905062000fa0919062000fa4565b5090565b5b8082111562000fbf57600081600090555060010162000fa5565b5090565b600082825260208201905092915050565b7f4f776e61626c653a2063616c6c6572206973206e6f7420746865206f776e6572600082015250565b60006200100c60208362000fc3565b9150620010198262000fd4565b602082019050919050565b600060208201905081810360008301526200103f8162000ffd565b9050919050565b6000819050919050565b7f4e487b7100000000000000000000000000000000000000000000000000000000600052601160045260246000fd5b60006200108c8262001046565b9150620010998362001046565b9250827fffffffffffffffffffffffffffffffffffffffffffffffffffffffffffffffff03821115620010d157620010d062001050565b5b828201905092915050565b6000620010e98262001046565b9150620010f68362001046565b9250817fffffffffffffffffffffffffffffffffffffffffffffffffffffffffffffffff048311821515161562001132576200113162001050565b5b828202905092915050565b60006200114a8262001046565b91507fffffffffffffffffffffffffffffffffffffffffffffffffffffffffffffffff82141562001180576200117f62001050565b5b600182019050919050565b7f4552433732313a207472616e7366657220746f206e6f6e20455243373231526560008201527f63656976657220696d706c656d656e7465720000000000000000000000000000602082015250565b6000620011e960328362000fc3565b9150620011f6826200118b565b604082019050919050565b600060208201905081810360008301526200121c81620011da565b9050919050565b7f4552433732313a206d696e7420746f20746865207a65726f2061646472657373600082015250565b60006200125b60208362000fc3565b9150620012688262001223565b602082019050919050565b600060208201905081810360008301526200128e816200124c565b9050919050565b7f4552433732313a20746f6b656e20616c7265616479206d696e74656400000000600082015250565b6000620012cd601c8362000fc3565b9150620012da8262001295565b602082019050919050565b600060208201905081810360008301526200130081620012be565b9050919050565b600073ffffffffffffffffffffffffffffffffffffffff82169050919050565b6000620013348262001307565b9050919050565b620013468162001327565b82525050565b620013578162001046565b82525050565b600081519050919050565b600082825260208201905092915050565b60005b83811015620013995780820151818401526020810190506200137c565b83811115620013a9576000848401525b50505050565b6000601f19601f8301169050919050565b6000620013cd826200135d565b620013d9818562001368565b9350620013eb81856020860162001379565b620013f681620013af565b840191505092915050565b60006080820190506200141860008301876200133b565b6200142760208301866200133b565b6200143660408301856200134c565b81810360608301526200144a8184620013c0565b905095945050505050565b600080fd5b60007fffffffff0000000000000000000000000000000000000000000000000000000082169050919050565b62001491816200145a565b81146200149d57600080fd5b50565b600081519050620014b18162001486565b92915050565b600060208284031215620014d057620014cf62001455565b5b6000620014e084828501620014a0565b91505092915050565b6000620014f68262001046565b9150620015038362001046565b92508282101562001519576200151862001050565b5b828203905092915050565b7f4e487b7100000000000000000000000000000000000000000000000000000000600052603260045260246000fd5b7f4e487b7100000000000000000000000000000000000000000000000000000000600052603160045260246000fd5b7f4552433732313a2062616c616e636520717565727920666f7220746865207a6560008201527f726f206164647265737300000000000000000000000000000000000000000000602082015250565b6000620015e0602a8362000fc3565b9150620015ed8262001582565b604082019050919050565b600060208201905081810360008301526200161381620015d1565b9050919050565b7f4e487b7100000000000000000000000000000000000000000000000000000000600052602260045260246000fd5b600060028204905060018216806200166257607f821691505b602082108114156200167957620016786200161a565b5b50919050565b614a42806200168f6000396000f3fe6080604052600436106102515760003560e01c806355f804b311610139578063a22cb465116100b6578063d5abeb011161007a578063d5abeb01146108a4578063d936547e146108cf578063da3ef23f1461090c578063e985e9c514610935578063ed931e1714610972578063f2fde38b1461099b57610251565b8063a22cb465146107c1578063b2f3e85e146107ea578063b88d4fde14610813578063c66828621461083c578063c87b56dd1461086757610251565b8063715018a6116100fd578063715018a6146107025780637f00c7a6146107195780638da5cb5b146107425780638fdcf9421461076d57806395d89b411461079657610251565b806355f804b3146106095780635c975abb146106325780636352211e1461065d5780636c0360eb1461069a57806370a08231146106c557610251565b80632f745c59116101d257806342842e0e1161019657806342842e0e146104eb578063438b63001461051457806344a0d68a146105515780634a4c560d1461057a5780634f6ccce7146105a3578063546857c7146105e057610251565b80632f745c591461042257806330b2264e1461045f57806330cc7ae01461049c5780633ccfd60b146104c557806340c10f19146104cf57610251565b806313faede61161021957806313faede61461034d57806318160ddd14610378578063239c70ae146103a357806323b872dd146103ce5780632a23d07d146103f757610251565b806301ffc9a71461025657806302329a291461029357806306fdde03146102bc578063081812fc146102e7578063095ea7b314610324575b600080fd5b34801561026257600080fd5b5061027d60048036038101906102789190613358565b6109c4565b60405161028a91906133a0565b60405180910390f35b34801561029f57600080fd5b506102ba60048036038101906102b591906133e7565b610a3e565b005b3480156102c857600080fd5b506102d1610ad7565b6040516102de91906134ad565b60405180910390f35b3480156102f357600080fd5b5061030e60048036038101906103099190613505565b610b69565b60405161031b9190613573565b60405180910390f35b34801561033057600080fd5b5061034b600480360381019061034691906135ba565b610bee565b005b34801561035957600080fd5b50610362610d06565b60405161036f9190613609565b60405180910390f35b34801561038457600080fd5b5061038d610d0c565b60405161039a9190613609565b60405180910390f35b3480156103af57600080fd5b506103b8610d19565b6040516103c59190613609565b60405180910390f35b3480156103da57600080fd5b506103f560048036038101906103f09190613624565b610d1f565b005b34801561040357600080fd5b5061040c610d7f565b6040516104199190613609565b60405180910390f35b34801561042e57600080fd5b50610449600480360381019061044491906135ba565b610d85565b6040516104569190613609565b60405180910390f35b34801561046b57600080fd5b5061048660048036038101906104819190613677565b610e2a565b60405161049391906133a0565b60405180910390f35b3480156104a857600080fd5b506104c360048036038101906104be9190613677565b610e4a565b005b6104cd610f21565b005b6104e960048036038101906104e491906135ba565b611016565b005b3480156104f757600080fd5b50610512600480360381019061050d9190613624565b6111d4565b005b34801561052057600080fd5b5061053b60048036038101906105369190613677565b6111f4565b6040516105489190613762565b60405180910390f35b34801561055d57600080fd5b5061057860048036038101906105739190613505565b6112a2565b005b34801561058657600080fd5b506105a1600480360381019061059c9190613677565b611328565b005b3480156105af57600080fd5b506105ca60048036038101906105c59190613505565b6113ff565b6040516105d79190613609565b60405180910390f35b3480156105ec57600080fd5b50610607600480360381019061060291906138ba565b611470565b005b34801561061557600080fd5b50610630600480360381019061062b919061399d565b61157e565b005b34801561063e57600080fd5b50610647611614565b60405161065491906133a0565b60405180910390f35b34801561066957600080fd5b50610684600480360381019061067f9190613505565b611627565b6040516106919190613573565b60405180910390f35b3480156106a657600080fd5b506106af6116d9565b6040516106bc91906134ad565b60405180910390f35b3480156106d157600080fd5b506106ec60048036038101906106e79190613677565b611767565b6040516106f99190613609565b60405180910390f35b34801561070e57600080fd5b5061071761181f565b005b34801561072557600080fd5b50610740600480360381019061073b9190613505565b6118a7565b005b34801561074e57600080fd5b5061075761192d565b6040516107649190613573565b60405180910390f35b34801561077957600080fd5b50610794600480360381019061078f9190613505565b611957565b005b3480156107a257600080fd5b506107ab6119dd565b6040516107b891906134ad565b60405180910390f35b3480156107cd57600080fd5b506107e860048036038101906107e391906139e6565b611a6f565b005b3480156107f657600080fd5b50610811600480360381019061080c9190613677565b611bf0565b005b34801561081f57600080fd5b5061083a60048036038101906108359190613ac7565b611cc7565b005b34801561084857600080fd5b50610851611d29565b60405161085e91906134ad565b60405180910390f35b34801561087357600080fd5b5061088e60048036038101906108899190613505565b611db7565b60405161089b91906134ad565b60405180910390f35b3480156108b057600080fd5b506108b9611e61565b6040516108c69190613609565b60405180910390f35b3480156108db57600080fd5b506108f660048036038101906108f19190613677565b611e67565b60405161090391906133a0565b60405180910390f35b34801561091857600080fd5b50610933600480360381019061092e919061399d565b611e87565b005b34801561094157600080fd5b5061095c60048036038101906109579190613b4a565b611f1d565b60405161096991906133a0565b60405180910390f35b34801561097e57600080fd5b5061099960048036038101906109949190613677565b611fb1565b005b3480156109a757600080fd5b506109c260048036038101906109bd9190613677565b612088565b005b60007f780e9d63000000000000000000000000000000000000000000000000000000007bffffffffffffffffffffffffffffffffffffffffffffffffffffffff1916827bffffffffffffffffffffffffffffffffffffffffffffffffffffffff19161480610a375750610a3682612198565b5b9050919050565b610a4661227a565b73ffffffffffffffffffffffffffffffffffffffff16610a6461192d565b73ffffffffffffffffffffffffffffffffffffffff1614610aba576040517f08c379a0000000000000000000000000000000000000000000000000000000008152600401610ab190613bd6565b60405180910390fd5b80601160006101000a81548160ff02191690831515021790555050565b606060008054610ae690613c25565b80601f0160208091040260200160405190810160405280929190818152602001828054610b1290613c25565b8015610b5f5780601f10610b3457610100808354040283529160200191610b5f565b820191906000526020600020905b815481529060010190602001808311610b4257829003601f168201915b5050505050905090565b6000610b7482612282565b610bb3576040517f08c379a0000000000000000000000000000000000000000000000000000000008152600401610baa90613cc9565b60405180910390fd5b6004600083815260200190815260200160002060009054906101000a900473ffffffffffffffffffffffffffffffffffffffff169050919050565b6000610bf982611627565b90508073ffffffffffffffffffffffffffffffffffffffff168373ffffffffffffffffffffffffffffffffffffffff161415610c6a576040517f08c379a0000000000000000000000000000000000000000000000000000000008152600401610c6190613d5b565b60405180910390fd5b8073ffffffffffffffffffffffffffffffffffffffff16610c8961227a565b73ffffffffffffffffffffffffffffffffffffffff161480610cb85750610cb781610cb261227a565b611f1d565b5b610cf7576040517f08c379a0000000000000000000000000000000000000000000000000000000008152600401610cee90613ded565b60405180910390fd5b610d0183836122ee565b505050565b600d5481565b6000600880549050905090565b60105481565b610d30610d2a61227a565b826123a7565b610d6f576040517f08c379a0000000000000000000000000000000000000000000000000000000008152600401610d6690613e7f565b60405180910390fd5b610d7a838383612485565b505050565b600e5481565b6000610d9083611767565b8210610dd1576040517f08c379a0000000000000000000000000000000000000000000000000000000008152600401610dc890613f11565b60405180910390fd5b600660008473ffffffffffffffffffffffffffffffffffffffff1673ffffffffffffffffffffffffffffffffffffffff168152602001908152602001600020600083815260200190815260200160002054905092915050565b60136020528060005260406000206000915054906101000a900460ff1681565b610e5261227a565b73ffffffffffffffffffffffffffffffffffffffff16610e7061192d565b73ffffffffffffffffffffffffffffffffffffffff1614610ec6576040517f08c379a0000000000000000000000000000000000000000000000000000000008152600401610ebd90613bd6565b60405180910390fd5b6000601260008373ffffffffffffffffffffffffffffffffffffffff1673ffffffffffffffffffffffffffffffffffffffff16815260200190815260200160002060006101000a81548160ff02191690831515021790555050565b610f2961227a565b73ffffffffffffffffffffffffffffffffffffffff16610f4761192d565b73ffffffffffffffffffffffffffffffffffffffff1614610f9d576040517f08c379a0000000000000000000000000000000000000000000000000000000008152600401610f9490613bd6565b60405180910390fd5b60003373ffffffffffffffffffffffffffffffffffffffff1647604051610fc390613f62565b60006040518083038185875af1925050503d8060008114611000576040519150601f19603f3d011682016040523d82523d6000602084013e611005565b606091505b505090508061101357600080fd5b50565b6000611020610d0c565b9050601160009054906101000a900460ff161561103c57600080fd5b6000821161104957600080fd5b60105482111561105857600080fd5b600f5482826110679190613fa6565b111561107257600080fd5b61107a61192d565b73ffffffffffffffffffffffffffffffffffffffff163373ffffffffffffffffffffffffffffffffffffffff16146111985760011515601260003373ffffffffffffffffffffffffffffffffffffffff1673ffffffffffffffffffffffffffffffffffffffff16815260200190815260200160002060009054906101000a900460ff161515146111975760011515601360003373ffffffffffffffffffffffffffffffffffffffff1673ffffffffffffffffffffffffffffffffffffffff16815260200190815260200160002060009054906101000a900460ff1615151461117b5781600d5461116a9190613ffc565b34101561117657600080fd5b611196565b81600e546111899190613ffc565b34101561119557600080fd5b5b5b5b6000600190505b8281116111ce576111bb8482846111b69190613fa6565b6126e1565b80806111c690614056565b91505061119f565b50505050565b6111ef83838360405180602001604052806000815250611cc7565b505050565b6060600061120183611767565b905060008167ffffffffffffffff81111561121f5761121e613789565b5b60405190808252806020026020018201604052801561124d5781602001602082028036833780820191505090505b50905060005b82811015611297576112658582610d85565b8282815181106112785761127761409f565b5b602002602001018181525050808061128f90614056565b915050611253565b508092505050919050565b6112aa61227a565b73ffffffffffffffffffffffffffffffffffffffff166112c861192d565b73ffffffffffffffffffffffffffffffffffffffff161461131e576040517f08c379a000000000000000000000000000000000000000000000000000000000815260040161131590613bd6565b60405180910390fd5b80600d8190555050565b61133061227a565b73ffffffffffffffffffffffffffffffffffffffff1661134e61192d565b73ffffffffffffffffffffffffffffffffffffffff16146113a4576040517f08c379a000000000000000000000000000000000000000000000000000000000815260040161139b90613bd6565b60405180910390fd5b6001601260008373ffffffffffffffffffffffffffffffffffffffff1673ffffffffffffffffffffffffffffffffffffffff16815260200190815260200160002060006101000a81548160ff02191690831515021790555050565b6000611409610d0c565b821061144a576040517f08c379a000000000000000000000000000000000000000000000000000000000815260040161144190614140565b60405180910390fd5b6008828154811061145e5761145d61409f565b5b90600052602060002001549050919050565b61147861227a565b73ffffffffffffffffffffffffffffffffffffffff1661149661192d565b73ffffffffffffffffffffffffffffffffffffffff16146114ec576040517f08c379a00000000000000000000000000000000000000000000000000000000081526004016114e390613bd6565b60405180910390fd5b60005b600281101561157a576001601360008484606481106115115761151061409f565b5b602002015173ffffffffffffffffffffffffffffffffffffffff1673ffffffffffffffffffffffffffffffffffffffff16815260200190815260200160002060006101000a81548160ff021916908315150217905550808061157290614056565b9150506114ef565b5050565b61158661227a565b73ffffffffffffffffffffffffffffffffffffffff166115a461192d565b73ffffffffffffffffffffffffffffffffffffffff16146115fa576040517f08c379a00000000000000000000000000000000000000000000000000000000081526004016115f190613bd6565b60405180910390fd5b80600b9080519060200190611610929190613249565b5050565b601160009054906101000a900460ff1681565b6000806002600084815260200190815260200160002060009054906101000a900473ffffffffffffffffffffffffffffffffffffffff169050600073ffffffffffffffffffffffffffffffffffffffff168173ffffffffffffffffffffffffffffffffffffffff1614156116d0576040517f08c379a00000000000000000000000000000000000000000000000000000000081526004016116c7906141d2565b60405180910390fd5b80915050919050565b600b80546116e690613c25565b80601f016020809104026020016040519081016040528092919081815260200182805461171290613c25565b801561175f5780601f106117345761010080835404028352916020019161175f565b820191906000526020600020905b81548152906001019060200180831161174257829003601f168201915b505050505081565b60008073ffffffffffffffffffffffffffffffffffffffff168273ffffffffffffffffffffffffffffffffffffffff1614156117d8576040517f08c379a00000000000000000000000000000000000000000000000000000000081526004016117cf90614264565b60405180910390fd5b600360008373ffffffffffffffffffffffffffffffffffffffff1673ffffffffffffffffffffffffffffffffffffffff168152602001908152602001600020549050919050565b61182761227a565b73ffffffffffffffffffffffffffffffffffffffff1661184561192d565b73ffffffffffffffffffffffffffffffffffffffff161461189b576040517f08c379a000000000000000000000000000000000000000000000000000000000815260040161189290613bd6565b60405180910390fd5b6118a560006126ff565b565b6118af61227a565b73ffffffffffffffffffffffffffffffffffffffff166118cd61192d565b73ffffffffffffffffffffffffffffffffffffffff1614611923576040517f08c379a000000000000000000000000000000000000000000000000000000000815260040161191a90613bd6565b60405180910390fd5b8060108190555050565b6000600a60009054906101000a900473ffffffffffffffffffffffffffffffffffffffff16905090565b61195f61227a565b73ffffffffffffffffffffffffffffffffffffffff1661197d61192d565b73ffffffffffffffffffffffffffffffffffffffff16146119d3576040517f08c379a00000000000000000000000000000000000000000000000000000000081526004016119ca90613bd6565b60405180910390fd5b80600e8190555050565b6060600180546119ec90613c25565b80601f0160208091040260200160405190810160405280929190818152602001828054611a1890613c25565b8015611a655780601f10611a3a57610100808354040283529160200191611a65565b820191906000526020600020905b815481529060010190602001808311611a4857829003601f168201915b5050505050905090565b611a7761227a565b73ffffffffffffffffffffffffffffffffffffffff168273ffffffffffffffffffffffffffffffffffffffff161415611ae5576040517f08c379a0000000000000000000000000000000000000000000000000000000008152600401611adc906142d0565b60405180910390fd5b8060056000611af261227a565b73ffffffffffffffffffffffffffffffffffffffff1673ffffffffffffffffffffffffffffffffffffffff16815260200190815260200160002060008473ffffffffffffffffffffffffffffffffffffffff1673ffffffffffffffffffffffffffffffffffffffff16815260200190815260200160002060006101000a81548160ff0219169083151502179055508173ffffffffffffffffffffffffffffffffffffffff16611b9f61227a565b73ffffffffffffffffffffffffffffffffffffffff167f17307eab39ab6107e8899845ad3d59bd9653f200f220920489ca2b5937696c3183604051611be491906133a0565b60405180910390a35050565b611bf861227a565b73ffffffffffffffffffffffffffffffffffffffff16611c1661192d565b73ffffffffffffffffffffffffffffffffffffffff1614611c6c576040517f08c379a0000000000000000000000000000000000000000000000000000000008152600401611c6390613bd6565b60405180910390fd5b6001601360008373ffffffffffffffffffffffffffffffffffffffff1673ffffffffffffffffffffffffffffffffffffffff16815260200190815260200160002060006101000a81548160ff02191690831515021790555050565b611cd8611cd261227a565b836123a7565b611d17576040517f08c379a0000000000000000000000000000000000000000000000000000000008152600401611d0e90613e7f565b60405180910390fd5b611d23848484846127c5565b50505050565b600c8054611d3690613c25565b80601f0160208091040260200160405190810160405280929190818152602001828054611d6290613c25565b8015611daf5780601f10611d8457610100808354040283529160200191611daf565b820191906000526020600020905b815481529060010190602001808311611d9257829003601f168201915b505050505081565b6060611dc282612282565b611e01576040517f08c379a0000000000000000000000000000000000000000000000000000000008152600401611df890614362565b60405180910390fd5b6000611e0b612821565b90506000815111611e2b5760405180602001604052806000815250611e59565b80611e35846128b3565b600c604051602001611e4993929190614452565b6040516020818303038152906040525b915050919050565b600f5481565b60126020528060005260406000206000915054906101000a900460ff1681565b611e8f61227a565b73ffffffffffffffffffffffffffffffffffffffff16611ead61192d565b73ffffffffffffffffffffffffffffffffffffffff1614611f03576040517f08c379a0000000000000000000000000000000000000000000000000000000008152600401611efa90613bd6565b60405180910390fd5b80600c9080519060200190611f19929190613249565b5050565b6000600560008473ffffffffffffffffffffffffffffffffffffffff1673ffffffffffffffffffffffffffffffffffffffff16815260200190815260200160002060008373ffffffffffffffffffffffffffffffffffffffff1673ffffffffffffffffffffffffffffffffffffffff16815260200190815260200160002060009054906101000a900460ff16905092915050565b611fb961227a565b73ffffffffffffffffffffffffffffffffffffffff16611fd761192d565b73ffffffffffffffffffffffffffffffffffffffff161461202d576040517f08c379a000000000000000000000000000000000000000000000000000000000815260040161202490613bd6565b60405180910390fd5b6000601360008373ffffffffffffffffffffffffffffffffffffffff1673ffffffffffffffffffffffffffffffffffffffff16815260200190815260200160002060006101000a81548160ff02191690831515021790555050565b61209061227a565b73ffffffffffffffffffffffffffffffffffffffff166120ae61192d565b73ffffffffffffffffffffffffffffffffffffffff1614612104576040517f08c379a00000000000000000000000000000000000000000000000000000000081526004016120fb90613bd6565b60405180910390fd5b600073ffffffffffffffffffffffffffffffffffffffff168173ffffffffffffffffffffffffffffffffffffffff161415612174576040517f08c379a000000000000000000000000000000000000000000000000000000000815260040161216b906144f5565b60405180910390fd5b61217d816126ff565b50565b600080823b905060008111915050919050565b505050565b60007f80ac58cd000000000000000000000000000000000000000000000000000000007bffffffffffffffffffffffffffffffffffffffffffffffffffffffff1916827bffffffffffffffffffffffffffffffffffffffffffffffffffffffff1916148061226357507f5b5e139f000000000000000000000000000000000000000000000000000000007bffffffffffffffffffffffffffffffffffffffffffffffffffffffff1916827bffffffffffffffffffffffffffffffffffffffffffffffffffffffff1916145b80612273575061227282612a14565b5b9050919050565b600033905090565b60008073ffffffffffffffffffffffffffffffffffffffff166002600084815260200190815260200160002060009054906101000a900473ffffffffffffffffffffffffffffffffffffffff1673ffffffffffffffffffffffffffffffffffffffff1614159050919050565b816004600083815260200190815260200160002060006101000a81548173ffffffffffffffffffffffffffffffffffffffff021916908373ffffffffffffffffffffffffffffffffffffffff160217905550808273ffffffffffffffffffffffffffffffffffffffff1661236183611627565b73ffffffffffffffffffffffffffffffffffffffff167f8c5be1e5ebec7d5bd14f71427d1e84f3dd0314c0f7b2291e5b200ac8c7c3b92560405160405180910390a45050565b60006123b282612282565b6123f1576040517f08c379a00000000000000000000000000000000000000000000000000000000081526004016123e890614587565b60405180910390fd5b60006123fc83611627565b90508073ffffffffffffffffffffffffffffffffffffffff168473ffffffffffffffffffffffffffffffffffffffff16148061246b57508373ffffffffffffffffffffffffffffffffffffffff1661245384610b69565b73ffffffffffffffffffffffffffffffffffffffff16145b8061247c575061247b8185611f1d565b5b91505092915050565b8273ffffffffffffffffffffffffffffffffffffffff166124a582611627565b73ffffffffffffffffffffffffffffffffffffffff16146124fb576040517f08c379a00000000000000000000000000000000000000000000000000000000081526004016124f290614619565b60405180910390fd5b600073ffffffffffffffffffffffffffffffffffffffff168273ffffffffffffffffffffffffffffffffffffffff16141561256b576040517f08c379a0000000000000000000000000000000000000000000000000000000008152600401612562906146ab565b60405180910390fd5b612576838383612a7e565b6125816000826122ee565b6001600360008573ffffffffffffffffffffffffffffffffffffffff1673ffffffffffffffffffffffffffffffffffffffff16815260200190815260200160002060008282546125d191906146cb565b925050819055506001600360008473ffffffffffffffffffffffffffffffffffffffff1673ffffffffffffffffffffffffffffffffffffffff16815260200190815260200160002060008282546126289190613fa6565b92505081905550816002600083815260200190815260200160002060006101000a81548173ffffffffffffffffffffffffffffffffffffffff021916908373ffffffffffffffffffffffffffffffffffffffff160217905550808273ffffffffffffffffffffffffffffffffffffffff168473ffffffffffffffffffffffffffffffffffffffff167fddf252ad1be2c89b69c2b068fc378daa952ba7f163c4a11628f55a4df523b3ef60405160405180910390a4505050565b6126fb828260405180602001604052806000815250612b92565b5050565b6000600a60009054906101000a900473ffffffffffffffffffffffffffffffffffffffff16905081600a60006101000a81548173ffffffffffffffffffffffffffffffffffffffff021916908373ffffffffffffffffffffffffffffffffffffffff1602179055508173ffffffffffffffffffffffffffffffffffffffff168173ffffffffffffffffffffffffffffffffffffffff167f8be0079c531659141344cd1fd0a4f28419497f9722a3daafe3b4186f6b6457e060405160405180910390a35050565b6127d0848484612485565b6127dc84848484612bed565b61281b576040517f08c379a000000000000000000000000000000000000000000000000000000000815260040161281290614771565b60405180910390fd5b50505050565b6060600b805461283090613c25565b80601f016020809104026020016040519081016040528092919081815260200182805461285c90613c25565b80156128a95780601f1061287e576101008083540402835291602001916128a9565b820191906000526020600020905b81548152906001019060200180831161288c57829003601f168201915b5050505050905090565b606060008214156128fb576040518060400160405280600181526020017f30000000000000000000000000000000000000000000000000000000000000008152509050612a0f565b600082905060005b6000821461292d57808061291690614056565b915050600a8261292691906147c0565b9150612903565b60008167ffffffffffffffff81111561294957612948613789565b5b6040519080825280601f01601f19166020018201604052801561297b5781602001600182028036833780820191505090505b5090505b60008514612a085760018261299491906146cb565b9150600a856129a391906147f1565b60306129af9190613fa6565b60f81b8183815181106129c5576129c461409f565b5b60200101907effffffffffffffffffffffffffffffffffffffffffffffffffffffffffffff1916908160001a905350600a85612a0191906147c0565b945061297f565b8093505050505b919050565b60007f01ffc9a7000000000000000000000000000000000000000000000000000000007bffffffffffffffffffffffffffffffffffffffffffffffffffffffff1916827bffffffffffffffffffffffffffffffffffffffffffffffffffffffff1916149050919050565b612a89838383612193565b600073ffffffffffffffffffffffffffffffffffffffff168373ffffffffffffffffffffffffffffffffffffffff161415612acc57612ac781612d75565b612b0b565b8173ffffffffffffffffffffffffffffffffffffffff168373ffffffffffffffffffffffffffffffffffffffff1614612b0a57612b098382612dbe565b5b5b600073ffffffffffffffffffffffffffffffffffffffff168273ffffffffffffffffffffffffffffffffffffffff161415612b4e57612b4981612f2b565b612b8d565b8273ffffffffffffffffffffffffffffffffffffffff168273ffffffffffffffffffffffffffffffffffffffff1614612b8c57612b8b8282612ffc565b5b5b505050565b612b9c838361307b565b612ba96000848484612bed565b612be8576040517f08c379a0000000000000000000000000000000000000000000000000000000008152600401612bdf90614771565b60405180910390fd5b505050565b6000612c0e8473ffffffffffffffffffffffffffffffffffffffff16612180565b15612d68578373ffffffffffffffffffffffffffffffffffffffff1663150b7a02612c3761227a565b8786866040518563ffffffff1660e01b8152600401612c599493929190614877565b6020604051808303816000875af1925050508015612c9557506040513d601f19601f82011682018060405250810190612c9291906148d8565b60015b612d18573d8060008114612cc5576040519150601f19603f3d011682016040523d82523d6000602084013e612cca565b606091505b50600081511415612d10576040517f08c379a0000000000000000000000000000000000000000000000000000000008152600401612d0790614771565b60405180910390fd5b805181602001fd5b63150b7a0260e01b7bffffffffffffffffffffffffffffffffffffffffffffffffffffffff1916817bffffffffffffffffffffffffffffffffffffffffffffffffffffffff191614915050612d6d565b600190505b949350505050565b6008805490506009600083815260200190815260200160002081905550600881908060018154018082558091505060019003906000526020600020016000909190919091505550565b60006001612dcb84611767565b612dd591906146cb565b9050600060076000848152602001908152602001600020549050818114612eba576000600660008673ffffffffffffffffffffffffffffffffffffffff1673ffffffffffffffffffffffffffffffffffffffff168152602001908152602001600020600084815260200190815260200160002054905080600660008773ffffffffffffffffffffffffffffffffffffffff1673ffffffffffffffffffffffffffffffffffffffff168152602001908152602001600020600084815260200190815260200160002081905550816007600083815260200190815260200160002081905550505b6007600084815260200190815260200160002060009055600660008573ffffffffffffffffffffffffffffffffffffffff1673ffffffffffffffffffffffffffffffffffffffff16815260200190815260200160002060008381526020019081526020016000206000905550505050565b60006001600880549050612f3f91906146cb565b9050600060096000848152602001908152602001600020549050600060088381548110612f6f57612f6e61409f565b5b906000526020600020015490508060088381548110612f9157612f9061409f565b5b906000526020600020018190555081600960008381526020019081526020016000208190555060096000858152602001908152602001600020600090556008805480612fe057612fdf614905565b5b6001900381819060005260206000200160009055905550505050565b600061300783611767565b905081600660008573ffffffffffffffffffffffffffffffffffffffff1673ffffffffffffffffffffffffffffffffffffffff168152602001908152602001600020600083815260200190815260200160002081905550806007600084815260200190815260200160002081905550505050565b600073ffffffffffffffffffffffffffffffffffffffff168273ffffffffffffffffffffffffffffffffffffffff1614156130eb576040517f08c379a00000000000000000000000000000000000000000000000000000000081526004016130e290614980565b60405180910390fd5b6130f481612282565b15613134576040517f08c379a000000000000000000000000000000000000000000000000000000000815260040161312b906149ec565b60405180910390fd5b61314060008383612a7e565b6001600360008473ffffffffffffffffffffffffffffffffffffffff1673ffffffffffffffffffffffffffffffffffffffff16815260200190815260200160002060008282546131909190613fa6565b92505081905550816002600083815260200190815260200160002060006101000a81548173ffffffffffffffffffffffffffffffffffffffff021916908373ffffffffffffffffffffffffffffffffffffffff160217905550808273ffffffffffffffffffffffffffffffffffffffff16600073ffffffffffffffffffffffffffffffffffffffff167fddf252ad1be2c89b69c2b068fc378daa952ba7f163c4a11628f55a4df523b3ef60405160405180910390a45050565b82805461325590613c25565b90600052602060002090601f01602090048101928261327757600085556132be565b82601f1061329057805160ff19168380011785556132be565b828001600101855582156132be579182015b828111156132bd5782518255916020019190600101906132a2565b5b5090506132cb91906132cf565b5090565b5b808211156132e85760008160009055506001016132d0565b5090565b6000604051905090565b600080fd5b600080fd5b60007fffffffff0000000000000000000000000000000000000000000000000000000082169050919050565b61333581613300565b811461334057600080fd5b50565b6000813590506133528161332c565b92915050565b60006020828403121561336e5761336d6132f6565b5b600061337c84828501613343565b91505092915050565b60008115159050919050565b61339a81613385565b82525050565b60006020820190506133b56000830184613391565b92915050565b6133c481613385565b81146133cf57600080fd5b50565b6000813590506133e1816133bb565b92915050565b6000602082840312156133fd576133fc6132f6565b5b600061340b848285016133d2565b91505092915050565b600081519050919050565b600082825260208201905092915050565b60005b8381101561344e578082015181840152602081019050613433565b8381111561345d576000848401525b50505050565b6000601f19601f8301169050919050565b600061347f82613414565b613489818561341f565b9350613499818560208601613430565b6134a281613463565b840191505092915050565b600060208201905081810360008301526134c78184613474565b905092915050565b6000819050919050565b6134e2816134cf565b81146134ed57600080fd5b50565b6000813590506134ff816134d9565b92915050565b60006020828403121561351b5761351a6132f6565b5b6000613529848285016134f0565b91505092915050565b600073ffffffffffffffffffffffffffffffffffffffff82169050919050565b600061355d82613532565b9050919050565b61356d81613552565b82525050565b60006020820190506135886000830184613564565b92915050565b61359781613552565b81146135a257600080fd5b50565b6000813590506135b48161358e565b92915050565b600080604083850312156135d1576135d06132f6565b5b60006135df858286016135a5565b92505060206135f0858286016134f0565b9150509250929050565b613603816134cf565b82525050565b600060208201905061361e60008301846135fa565b92915050565b60008060006060848603121561363d5761363c6132f6565b5b600061364b868287016135a5565b935050602061365c868287016135a5565b925050604061366d868287016134f0565b9150509250925092565b60006020828403121561368d5761368c6132f6565b5b600061369b848285016135a5565b91505092915050565b600081519050919050565b600082825260208201905092915050565b6000819050602082019050919050565b6136d9816134cf565b82525050565b60006136eb83836136d0565b60208301905092915050565b6000602082019050919050565b600061370f826136a4565b61371981856136af565b9350613724836136c0565b8060005b8381101561375557815161373c88826136df565b9750613747836136f7565b925050600181019050613728565b5085935050505092915050565b6000602082019050818103600083015261377c8184613704565b905092915050565b600080fd5b7f4e487b7100000000000000000000000000000000000000000000000000000000600052604160045260246000fd5b6137c182613463565b810181811067ffffffffffffffff821117156137e0576137df613789565b5b80604052505050565b60006137f36132ec565b90506137ff82826137b8565b919050565b600067ffffffffffffffff82111561381f5761381e613789565b5b602082029050919050565b600080fd5b600061384261383d84613804565b6137e9565b9050806020840283018581111561385c5761385b61382a565b5b835b81811015613885578061387188826135a5565b84526020840193505060208101905061385e565b5050509392505050565b600082601f8301126138a4576138a3613784565b5b60646138b184828561382f565b91505092915050565b6000610c8082840312156138d1576138d06132f6565b5b60006138df8482850161388f565b91505092915050565b600080fd5b600067ffffffffffffffff82111561390857613907613789565b5b61391182613463565b9050602081019050919050565b82818337600083830152505050565b600061394061393b846138ed565b6137e9565b90508281526020810184848401111561395c5761395b6138e8565b5b61396784828561391e565b509392505050565b600082601f83011261398457613983613784565b5b813561399484826020860161392d565b91505092915050565b6000602082840312156139b3576139b26132f6565b5b600082013567ffffffffffffffff8111156139d1576139d06132fb565b5b6139dd8482850161396f565b91505092915050565b600080604083850312156139fd576139fc6132f6565b5b6000613a0b858286016135a5565b9250506020613a1c858286016133d2565b9150509250929050565b600067ffffffffffffffff821115613a4157613a40613789565b5b613a4a82613463565b9050602081019050919050565b6000613a6a613a6584613a26565b6137e9565b905082815260208101848484011115613a8657613a856138e8565b5b613a9184828561391e565b509392505050565b600082601f830112613aae57613aad613784565b5b8135613abe848260208601613a57565b91505092915050565b60008060008060808587031215613ae157613ae06132f6565b5b6000613aef878288016135a5565b9450506020613b00878288016135a5565b9350506040613b11878288016134f0565b925050606085013567ffffffffffffffff811115613b3257613b316132fb565b5b613b3e87828801613a99565b91505092959194509250565b60008060408385031215613b6157613b606132f6565b5b6000613b6f858286016135a5565b9250506020613b80858286016135a5565b9150509250929050565b7f4f776e61626c653a2063616c6c6572206973206e6f7420746865206f776e6572600082015250565b6000613bc060208361341f565b9150613bcb82613b8a565b602082019050919050565b60006020820190508181036000830152613bef81613bb3565b9050919050565b7f4e487b7100000000000000000000000000000000000000000000000000000000600052602260045260246000fd5b60006002820490506001821680613c3d57607f821691505b60208210811415613c5157613c50613bf6565b5b50919050565b7f4552433732313a20617070726f76656420717565727920666f72206e6f6e657860008201527f697374656e7420746f6b656e0000000000000000000000000000000000000000602082015250565b6000613cb3602c8361341f565b9150613cbe82613c57565b604082019050919050565b60006020820190508181036000830152613ce281613ca6565b9050919050565b7f4552433732313a20617070726f76616c20746f2063757272656e74206f776e6560008201527f7200000000000000000000000000000000000000000000000000000000000000602082015250565b6000613d4560218361341f565b9150613d5082613ce9565b604082019050919050565b60006020820190508181036000830152613d7481613d38565b9050919050565b7f4552433732313a20617070726f76652063616c6c6572206973206e6f74206f7760008201527f6e6572206e6f7220617070726f76656420666f7220616c6c0000000000000000602082015250565b6000613dd760388361341f565b9150613de282613d7b565b604082019050919050565b60006020820190508181036000830152613e0681613dca565b9050919050565b7f4552433732313a207472616e736665722063616c6c6572206973206e6f74206f60008201527f776e6572206e6f7220617070726f766564000000000000000000000000000000602082015250565b6000613e6960318361341f565b9150613e7482613e0d565b604082019050919050565b60006020820190508181036000830152613e9881613e5c565b9050919050565b7f455243373231456e756d657261626c653a206f776e657220696e646578206f7560008201527f74206f6620626f756e6473000000000000000000000000000000000000000000602082015250565b6000613efb602b8361341f565b9150613f0682613e9f565b604082019050919050565b60006020820190508181036000830152613f2a81613eee565b9050919050565b600081905092915050565b50565b6000613f4c600083613f31565b9150613f5782613f3c565b600082019050919050565b6000613f6d82613f3f565b9150819050919050565b7f4e487b7100000000000000000000000000000000000000000000000000000000600052601160045260246000fd5b6000613fb1826134cf565b9150613fbc836134cf565b9250827fffffffffffffffffffffffffffffffffffffffffffffffffffffffffffffffff03821115613ff157613ff0613f77565b5b828201905092915050565b6000614007826134cf565b9150614012836134cf565b9250817fffffffffffffffffffffffffffffffffffffffffffffffffffffffffffffffff048311821515161561404b5761404a613f77565b5b828202905092915050565b6000614061826134cf565b91507fffffffffffffffffffffffffffffffffffffffffffffffffffffffffffffffff82141561409457614093613f77565b5b600182019050919050565b7f4e487b7100000000000000000000000000000000000000000000000000000000600052603260045260246000fd5b7f455243373231456e756d657261626c653a20676c6f62616c20696e646578206f60008201527f7574206f6620626f756e64730000000000000000000000000000000000000000602082015250565b600061412a602c8361341f565b9150614135826140ce565b604082019050919050565b600060208201905081810360008301526141598161411d565b9050919050565b7f4552433732313a206f776e657220717565727920666f72206e6f6e657869737460008201527f656e7420746f6b656e0000000000000000000000000000000000000000000000602082015250565b60006141bc60298361341f565b91506141c782614160565b604082019050919050565b600060208201905081810360008301526141eb816141af565b9050919050565b7f4552433732313a2062616c616e636520717565727920666f7220746865207a6560008201527f726f206164647265737300000000000000000000000000000000000000000000602082015250565b600061424e602a8361341f565b9150614259826141f2565b604082019050919050565b6000602082019050818103600083015261427d81614241565b9050919050565b7f4552433732313a20617070726f766520746f2063616c6c657200000000000000600082015250565b60006142ba60198361341f565b91506142c582614284565b602082019050919050565b600060208201905081810360008301526142e9816142ad565b9050919050565b7f4552433732314d657461646174613a2055524920717565727920666f72206e6f60008201527f6e6578697374656e7420746f6b656e0000000000000000000000000000000000602082015250565b600061434c602f8361341f565b9150614357826142f0565b604082019050919050565b6000602082019050818103600083015261437b8161433f565b9050919050565b600081905092915050565b600061439882613414565b6143a28185614382565b93506143b2818560208601613430565b80840191505092915050565b60008190508160005260206000209050919050565b600081546143e081613c25565b6143ea8186614382565b94506001821660008114614405576001811461441657614449565b60ff19831686528186019350614449565b61441f856143be565b60005b8381101561444157815481890152600182019150602081019050614422565b838801955050505b50505092915050565b600061445e828661438d565b915061446a828561438d565b915061447682846143d3565b9150819050949350505050565b7f4f776e61626c653a206e6577206f776e657220697320746865207a65726f206160008201527f6464726573730000000000000000000000000000000000000000000000000000602082015250565b60006144df60268361341f565b91506144ea82614483565b604082019050919050565b6000602082019050818103600083015261450e816144d2565b9050919050565b7f4552433732313a206f70657261746f7220717565727920666f72206e6f6e657860008201527f697374656e7420746f6b656e0000000000000000000000000000000000000000602082015250565b6000614571602c8361341f565b915061457c82614515565b604082019050919050565b600060208201905081810360008301526145a081614564565b9050919050565b7f4552433732313a207472616e73666572206f6620746f6b656e2074686174206960008201527f73206e6f74206f776e0000000000000000000000000000000000000000000000602082015250565b600061460360298361341f565b915061460e826145a7565b604082019050919050565b60006020820190508181036000830152614632816145f6565b9050919050565b7f4552433732313a207472616e7366657220746f20746865207a65726f2061646460008201527f7265737300000000000000000000000000000000000000000000000000000000602082015250565b600061469560248361341f565b91506146a082614639565b604082019050919050565b600060208201905081810360008301526146c481614688565b9050919050565b60006146d6826134cf565b91506146e1836134cf565b9250828210156146f4576146f3613f77565b5b828203905092915050565b7f4552433732313a207472616e7366657220746f206e6f6e20455243373231526560008201527f63656976657220696d706c656d656e7465720000000000000000000000000000602082015250565b600061475b60328361341f565b9150614766826146ff565b604082019050919050565b6000602082019050818103600083015261478a8161474e565b9050919050565b7f4e487b7100000000000000000000000000000000000000000000000000000000600052601260045260246000fd5b60006147cb826134cf565b91506147d6836134cf565b9250826147e6576147e5614791565b5b828204905092915050565b60006147fc826134cf565b9150614807836134cf565b92508261481757614816614791565b5b828206905092915050565b600081519050919050565b600082825260208201905092915050565b600061484982614822565b614853818561482d565b9350614863818560208601613430565b61486c81613463565b840191505092915050565b600060808201905061488c6000830187613564565b6148996020830186613564565b6148a660408301856135fa565b81810360608301526148b8818461483e565b905095945050505050565b6000815190506148d28161332c565b92915050565b6000602082840312156148ee576148ed6132f6565b5b60006148fc848285016148c3565b91505092915050565b7f4e487b7100000000000000000000000000000000000000000000000000000000600052603160045260246000fd5b7f4552433732313a206d696e7420746f20746865207a65726f2061646472657373600082015250565b600061496a60208361341f565b915061497582614934565b602082019050919050565b600060208201905081810360008301526149998161495d565b9050919050565b7f4552433732313a20746f6b656e20616c7265616479206d696e74656400000000600082015250565b60006149d6601c8361341f565b91506149e1826149a0565b602082019050919050565b60006020820190508181036000830152614a05816149c9565b905091905056fea2646970667358221220e566649f38d8c2ce767361fab4f6c93445f9a73603aff075ca10b1c3a3a5034d64736f6c634300080b0033697066733a2f2f516d58736b3966513142614471533158436e68447470385275325441674c66694344696f425752373871384b586a2f",
  "immutableReferences": {},
  "source": "//SPDX-License-Identifier: MIT\n\npragma solidity ^0.8.0;\n\nimport \"./token/ERC721/extensions/ERC721Enumerable.sol\";\nimport \"./access/Ownable.sol\";\n\ncontract TheStripesNFT is ERC721Enumerable, Ownable {\n    using Strings for uint256;\n\n    string public baseURI;\n    string public baseExtension = \".json\";\n    uint256 public cost = 0.05 ether;\n    uint256 public presaleCost = 0.03 ether;\n    uint256 public maxSupply = 10000;\n    uint256 public maxMintAmount = 10;\n    bool public paused = false;\n    mapping(address => bool) public whitelisted;\n    mapping(address => bool) public presaleWallets;\n\n    constructor() ERC721(\"GoofyGolfrs\",\"GFYGLFRS\") {\n        setBaseURI(\"ipfs://QmXsk9fQ1BaDqS1XCnhDtp8Ru2TAgLfiCDioBWR78q8KXj/\");\n        mint(msg.sender, 10);\n    }\n\n    // internal\n    function _baseURI() internal view virtual override returns (string memory) {\n        return baseURI;\n    }\n\n    // public\n    function mint(address _to, uint256 _mintAmount) public payable {\n        uint256 supply = totalSupply();\n        require(!paused);\n        require(_mintAmount > 0);\n        require(_mintAmount <= maxMintAmount);\n        require(supply + _mintAmount <= maxSupply);\n\n        if (msg.sender != owner()) {\n            if (whitelisted[msg.sender] != true) {\n                if (presaleWallets[msg.sender] != true) {\n                    //general public\n                    require(msg.value >= cost * _mintAmount);\n                } else {\n                    //presale\n                    require(msg.value >= presaleCost * _mintAmount);\n                }\n            }\n        }\n\n        for (uint256 i = 1; i <= _mintAmount; i++) {\n            _safeMint(_to, supply + i);\n        }\n    }\n\n    function walletOfOwner(address _owner)\n        public\n        view\n        returns (uint256[] memory)\n    {\n        uint256 ownerTokenCount = balanceOf(_owner);\n        uint256[] memory tokenIds = new uint256[](ownerTokenCount);\n        for (uint256 i; i < ownerTokenCount; i++) {\n            tokenIds[i] = tokenOfOwnerByIndex(_owner, i);\n        }\n        return tokenIds;\n    }\n\n    function tokenURI(uint256 tokenId)\n        public\n        view\n        virtual\n        override\n        returns (string memory)\n    {\n        require(\n            _exists(tokenId),\n            \"ERC721Metadata: URI query for nonexistent token\"\n        );\n\n        string memory currentBaseURI = _baseURI();\n        return\n            bytes(currentBaseURI).length > 0\n                ? string(\n                    abi.encodePacked(\n                        currentBaseURI,\n                        tokenId.toString(),\n                        baseExtension\n                    )\n                )\n                : \"\";\n    }\n\n    //only owner\n    function setCost(uint256 _newCost) public onlyOwner {\n        cost = _newCost;\n    }\n\n    function setPresaleCost(uint256 _newCost) public onlyOwner {\n        presaleCost = _newCost;\n    }\n\n    function setmaxMintAmount(uint256 _newmaxMintAmount) public onlyOwner {\n        maxMintAmount = _newmaxMintAmount;\n    }\n\n    function setBaseURI(string memory _newBaseURI) public onlyOwner {\n        baseURI = _newBaseURI;\n    }\n\n    function setBaseExtension(string memory _newBaseExtension)\n        public\n        onlyOwner\n    {\n        baseExtension = _newBaseExtension;\n    }\n\n    function pause(bool _state) public onlyOwner {\n        paused = _state;\n    }\n\n    function whitelistUser(address _user) public onlyOwner {\n        whitelisted[_user] = true;\n    }\n\n    function removeWhitelistUser(address _user) public onlyOwner {\n        whitelisted[_user] = false;\n    }\n\n    function addPresaleUser(address _user) public onlyOwner {\n        presaleWallets[_user] = true;\n    }\n\n    function add100PresaleUsers(address[100] memory _users) public onlyOwner {\n        for (uint256 i = 0; i < 2; i++) {\n            presaleWallets[_users[i]] = true;\n        }\n    }\n\n    function removePresaleUser(address _user) public onlyOwner {\n        presaleWallets[_user] = false;\n    }\n\n    function withdraw() public payable onlyOwner {\n        (bool success, ) = payable(msg.sender).call{\n            value: address(this).balance\n        }(\"\");\n        require(success);\n    }\n}\n",
  "sourcePath": "/home/hamaad/NFT/contracts/GoofyGolfers.sol",
  "compiler": {
    "name": "solc",
    "version": "0.8.11+commit.d7f03943.Emscripten.clang"
  },
  "schemaVersion": "3.4.5",
  "updatedAt": "2022-03-19T09:03:51.419Z",
  "devdoc": {
    "kind": "dev",
    "methods": {
      "approve(address,uint256)": {
        "details": "See {IERC721-approve}."
      },
      "balanceOf(address)": {
        "details": "See {IERC721-balanceOf}."
      },
      "getApproved(uint256)": {
        "details": "See {IERC721-getApproved}."
      },
      "isApprovedForAll(address,address)": {
        "details": "See {IERC721-isApprovedForAll}."
      },
      "name()": {
        "details": "See {IERC721Metadata-name}."
      },
      "owner()": {
        "details": "Returns the address of the current owner."
      },
      "ownerOf(uint256)": {
        "details": "See {IERC721-ownerOf}."
      },
      "renounceOwnership()": {
        "details": "Leaves the contract without owner. It will not be possible to call `onlyOwner` functions anymore. Can only be called by the current owner. NOTE: Renouncing ownership will leave the contract without an owner, thereby removing any functionality that is only available to the owner."
      },
      "safeTransferFrom(address,address,uint256)": {
        "details": "See {IERC721-safeTransferFrom}."
      },
      "safeTransferFrom(address,address,uint256,bytes)": {
        "details": "See {IERC721-safeTransferFrom}."
      },
      "setApprovalForAll(address,bool)": {
        "details": "See {IERC721-setApprovalForAll}."
      },
      "supportsInterface(bytes4)": {
        "details": "See {IERC165-supportsInterface}."
      },
      "symbol()": {
        "details": "See {IERC721Metadata-symbol}."
      },
      "tokenByIndex(uint256)": {
        "details": "See {IERC721Enumerable-tokenByIndex}."
      },
      "tokenOfOwnerByIndex(address,uint256)": {
        "details": "See {IERC721Enumerable-tokenOfOwnerByIndex}."
      },
      "tokenURI(uint256)": {
        "details": "See {IERC721Metadata-tokenURI}."
      },
      "totalSupply()": {
        "details": "See {IERC721Enumerable-totalSupply}."
      },
      "transferFrom(address,address,uint256)": {
        "details": "See {IERC721-transferFrom}."
      },
      "transferOwnership(address)": {
        "details": "Transfers ownership of the contract to a new account (`newOwner`). Can only be called by the current owner."
      }
    },
    "version": 1
  },
  "userdoc": {
    "kind": "user",
    "methods": {},
    "version": 1
  }
}